:020000041A00E0
:1000000000800010C103001A2501001A2701001A00
:100010002901001A2B01001A2D01001A7276FF53D4
:100020000000000000000000000000002F01001A86
:100030003101001A000000003301001A5116001AA5
:100040006701001A6701001A6701001A000000002A
:100050006701001A6701001A6701001A6701001A98
:100060005517001A6701001A6701001A6701001A84
:100070006701001A6701001A6701001A6701001A78
:100080006701001A6701001A6701001A6701001A68
:100090006701001A6701001A6701001A6701001A58
:1000A0006701001A6701001A6701001A6701001A48
:1000B0006701001A6701001A6701001A6701001A38
:1000C000881E001A0000001048000000881E001A58
:1000D0000000081000000000881E001A0000002028
:1000E00000000000881E001A0080002000000000B0
:1000F000881E001A00C00020000000004800001008
:100100003000000000000810000000000000002087
:1001100000000000008000200000000000C000205F
:1001200000000000FEE7FEE7FEE7FEE7FEE7FEE771
:10013000FEE7FEE7FEE7002393420AD210B450F830
:10014000044B41F8044B04339342F8D35DF8044B5D
:100150007047704700238B4204D2002240F8042BE2
:100160000433F8E77047FEE7FFFFFFFFFFFFFFFFE5
:10017000FFFFFFFFFFFFFFFFFFFFFFFFFFFFFFFF8F
:10018000FFFFFFFFFFFFFFFFFFFFFFFFFFFFFFFF7F
:10019000FFFFFFFFFFFFFFFFFFFFFFFFFFFFFFFF6F
:1001A000FFFFFFFFFFFFFFFFFFFFFFFFFFFFFFFF5F
:1001B000FFFFFFFFFFFFFFFFFFFFFFFFFFFFFFFF4F
:1001C000FFFFFFFFFFFFFFFFFFFFFFFFFFFFFFFF3F
:1001D000FFFFFFFFFFFFFFFFFFFFFFFFFFFFFFFF2F
:1001E000FFFFFFFFFFFFFFFFFFFFFFFFFFFFFFFF1F
:1001F000FFFFFFFFFFFFFFFFFFFFFFFFFFFFFFFF0F
:10020000FFFFFFFFFFFFFFFFFFFFFFFFFFFFFFFFFE
:10021000FFFFFFFFFFFFFFFFFFFFFFFFFFFFFFFFEE
:10022000FFFFFFFFFFFFFFFFFFFFFFFFFFFFFFFFDE
:10023000FFFFFFFFFFFFFFFFFFFFFFFFFFFFFFFFCE
:10024000FFFFFFFFFFFFFFFFFFFFFFFFFFFFFFFFBE
:10025000FFFFFFFFFFFFFFFFFFFFFFFFFFFFFFFFAE
:10026000FFFFFFFFFFFFFFFFFFFFFFFFFFFFFFFF9E
:10027000FFFFFFFFFFFFFFFFFFFFFFFFFFFFFFFF8E
:10028000FFFFFFFFFFFFFFFFFFFFFFFFFFFFFFFF7E
:10029000FFFFFFFFFFFFFFFFFFFFFFFFFFFFFFFF6E
:1002A000FFFFFFFFFFFFFFFFFFFFFFFFFFFFFFFF5E
:1002B000FFFFFFFFFFFFFFFFFFFFFFFFFFFFFFFF4E
:1002C000FFFFFFFFFFFFFFFFFFFFFFFFFFFFFFFF3E
:1002D000FFFFFFFFFFFFFFFFFFFFFFFFFFFFFFFF2E
:1002E000FFFFFFFFFFFFFFFFFFFFFFFFFFFFFFFF1E
:1002F000FFFFFFFFFFFFFFFFFFFFFFFFFFFFFFFF0E
:10030000F0B405460846931E222B14D80B462E4601
:1003100095FBF2F502FB15642334194601330E4FA9
:100320003C5D0C70002DF2D1002E07DB002203F89B
:10033000012902460CE000230B700BE02D221A70FD
:100340008B1CF3E71978147803F8014902F8011BB4
:100350009342F7D8F0BC7047741B001A30B587B0D1
:1003600001F006FA4FF4E131032001F09DF900207D
:1003700001F096F815E0002001F0EEF804460C4973
:10038000032001F0DCF90B4D0A2229462046FFF735
:10039000B7FF2946032001F0D2F90749032001F0F5
:1003A000CEF9684601F01EFA0028FAD0E3E700BF54
:1003B000BC1B001A48000010CC1B001A7047FFFF3E
:1003C00010B572B6194B1A4A1A600433194A1A60EA
:1003D000002305E0184A4FF0FF3142F823100133A3
:1003E000072BF7D962B6154B07E003F10C049A68A6
:1003F00059681868FFF79FFE2346114A9342F4D3C9
:1004000006E01C46596854F8080BFFF7A3FE234684
:100410000C4A9342F5D300F029FF01F07FFBFFF770
:10042000CDFFFFF79BFF30BFFDE700BF0031054068
:100430000010DF10FFF7DF0180E200E0C000001ACB
:10044000FC00001A2401001A7047704700231C2B7F
:1004500012D810B4094A02EB830112F823404A78FB
:10046000488802EB4412064941F8220001331C2B54
:10047000F0D95DF8044B7047704700BFD41B001AD9
:100480000060084010B5174AD2F8203123F47043B9
:1004900043F41043C2F82031D2F8243123F47043DE
:1004A00043F41043C2F8243101220F49062000F022
:1004B00031FE00244CB10B4B5A6822F00C025A60FA
:1004C0005A6842F003025A6010BD084800EB8401EC
:1004D00001238A78497810F8240000F00FFB0134DA
:1004E000E8E700BF0030044000CB280CD01B001A06
:1004F00008B5FFF7ABFFFFF7C5FF08BD0022052ACF
:1005000019D870B40C4911F8125001EB42014C7823
:100510000A4B05F5006653F826100120A040014360
:1005200043F8261003EB4513002119550132052A23
:10053000E8D970BC70477047541C001A00400F4047
:100540000023032B16D830B40B4911F8132001EB0C
:1005500043014D78094C02F5006254F82210012045
:10056000A84021EA000144F822100133032BEBD903
:1005700030BC7047704700BF4C1C001A00400F4051
:100580000023082B16D830B40B4911F8132001EBC7
:1005900043014D78094C02F5006254F82210012005
:1005A000A84021EA000144F822100133082BEBD9BE
:1005B00030BC7047704700BF601C001A00400F40FD
:1005C00010B582B0084C6946204600F0F5FC074A99
:1005D0006946204600F05AFD00226946204600F098
:1005E0006EFD02B010BD00BF00300E40801A060044
:1005F00010B50B4C204600F07DFB636823F004032C
:100600006360236823F0FF0343F007032360054979
:10061000204600F050FB636843F00203636010BDA6
:1006200000500C40A086010008B5002000F05CFCE2
:10063000044B40F60802C3F8842C0349002000F064
:1006400067FC08BD0060084040420F0010B5074C31
:10065000204600F081FB4FF4E131204600F0C6FB5C
:100660000323E3600123E36510BD00BF00100C40CD
:1006700008B5FFF7EBFF094800F016F8FFF780FF19
:10068000FFF79EFFFFF7B4FFFFF7CEFFFFF736FF40
:10069000FFF756FF00F00AF808BD00BF00400F400A
:1006A00008B5FFF7D3FF08BD7047FFFF08B5692005
:1006B00000F0BCFA014B186008BD00BF70000010CC
:1006C000F0B40B6813F0800F02D023F040030B60EE
:1006D000074601253AE04B6903FB02F3B3FBF5F350
:1006E0001CE01C46B0EB040C27D4674506D98D608E
:1006F000771CCF600A618C61CB6167460132B2F52D
:10070000807F1DDC0C6814F0400FE4D0731C02FAEB
:1007100003FC4B6903FB0CF3B3FBF5F3DFF838C0C4
:100720006345EBD9DFF834C0634509D814F0800F76
:10073000D7D1741C23FA04F4D4E7CCF1000CD4E72D
:100740000136032E01DC0122D9E70135042D01DC3D
:100750000026F6E7F0BC7047FF5E4C0900D012138C
:10076000F0B599B005460C465C22002101A801F0C5
:10077000F9F9802300936369059323798DF8043098
:1007800069462846FFF79CFF069BAB4227D0EB1A31
:100790002ED41E46109B23F04003109363691593DB
:1007A00023798DF8443010A92846FFF789FF169B5E
:1007B000AB421FD0EB1A25D41F462B4B9D4223D9A9
:1007C0000E982D1A33D4AE423BDCBE4231DC6D466E
:1007D0000FCD0FC495E80F0084E80F0006E06D46CA
:1007E0000FCD0FC495E80F0084E80F0019B0F0BDDD
:1007F0005B42CEE710AD0FCD0FC495E80F0084E843
:100800000F00F3E75B42D7E74023089363690D933A
:1008100008A92846FFF754FF0E9BAB42D0D108AD84
:100820000FCD0FC495E80F0084E80F00DEE76D429E
:10083000C9E710AD0FCD0FC495E80F0084E80F0095
:10084000D4E7AF4207DB08AD0FCD0FC495E80F002A
:1008500084E80F00CAE710AD0FCD0FC495E80F0074
:1008600084E80F00C2E700BF80778E0630B40546EB
:1008700000231C2000E001331C2817D103EB4302A6
:100880000B4901EB4202117981420FD003EB430285
:10089000074C34F81220AA42EDD803EB430204EBD4
:1008A00042025288AA42E6D30846E5E730BC7047C8
:1008B000801C001A82B04FF47A7301930D4A936939
:1008C00023F0020192698A4201D00A4A916123F021
:1008D0000303094A1168094A914201D943F004030C
:1008E000044A9361019B5A1E0192002BFAD102B077
:1008F000704700BF00000540741C001AFF2C310136
:100900001230054B53F8200010F0010F02D1C0F354
:1009100004607047112070470000054000F112028A
:10092000034B53F82220034B185C00EA92007047F7
:1009300000000540781C001A08B510280AD8DFE826
:1009400000F0440B0D18210924272A2D0909303401
:10095000383C4000002008BD1E48FCE71E4BD3F881
:100960002C3103F00703042B01D01C48F3E70020CF
:10097000F1E7194BD3F82C3103F00703042B27D0F0
:100980001648E8E7164B1868E5E7164B1868E2E7E3
:10099000154B1868DFE7144B5868DCE700F068F87F
:1009A000D9E7002100F098F8D5E7012100F094F88C
:1009B000D1E7022100F090F8CDE7032100F08CF898
:1009C000C9E7042100F088F8C5E74FF40040C2E70A
:1009D0000648C0E7001BB7000030044040787D01A6
:1009E000481C001A741C001A5400001080F0FA020F
:1009F00038B505460C460879FFF79EFF6061194B34
:100A00002B44194A934221D818B380232360002332
:100A1000A360E360B5FBF0F32361144A954203D968
:100A200003FB00F0A84207D021462846FFF798FEB6
:100A3000A3688BB1013BA360236983B1E2680AB16B
:100A4000013AE260013B2361002038BD4FF0FF30E6
:100A5000FBE74FF0FF30F8E74FF0FF30F5E74FF0DE
:100A6000FF30F2E7103A6BFF1005940BFF5E4C0964
:100A700070B582B0164D6C6CC4F30360FFF75CFF79
:100A80000646144A0192286C10F001001DD0C4F3F0
:100A90000742C4F30131C4F30125C4F380100132CD
:100AA000013102AB1D4415F8043C14F0800F08D14D
:100AB00038B95800B2FBF0F2B6FBF1F000FB02F0DF
:100AC00003E0B6FBF1F002FB00F002B070BD00BF26
:100AD000000005400102040838B50C460846FFF73F
:100AE0000FFF05462046FFF719FF04462846FFF78B
:100AF00023FF0134B0FBF4F038BDFFFF30B400F148
:100B00001604A40004F1804404F5A02464681B28A2
:100B100013D811291AD00E4D25400AB145F40065AD
:100B20000BB145F0010545EA01611630800000F186
:100B3000804000F5A020416008E044F00104163038
:100B4000800000F1804000F5A020446030BC704778
:100B5000FEF7FFE01B280DD800F116039B0003F100
:100B6000804303F5A023586810F0010F04D1C0F3AF
:100B700004607047112070471120704708B5FFF7D7
:100B8000E9FFFFF7D9FE08BD71B901210AB141F0B3
:100B90000401022B0AD0B0F5A17F0AD3A0F5917011
:100BA000064B43F8301070470321EFE741F0200176
:100BB000F1E72030024B43F8301070470020054029
:100BC00000100540B0F5A17F09D3094AA0F5917046
:100BD00052F8303043F0010342F830307047054A94
:100BE000203052F8303043F0010342F83030704783
:100BF0000020054000100540B0F5A17F09D3094A47
:100C0000A0F5917052F8303023F0010342F83030F3
:100C10007047054A203052F8303023F0010342F883
:100C200030307047002005400010054010B50346E5
:100C3000B0F5A17F08D3A0F591720D4951F832406B
:100C400014F0010006D110BD00F12002094951F84D
:100C50003240F5E71846FFF709FEFFF78FFF14F063
:100C6000E00F03D10123B0FBF3F0ECE70223FAE736
:100C70000020054000100540034B984201D083201E
:100C80007047A520704700BF00500C40044B9842AD
:100C900002D040F2022070474FF4F170704700BF5D
:100CA00000500C40036823F47F43090289B21943C2
:100CB00001600261704770B506460C46FFF7E6FF1B
:100CC000FFF7B4FF02224FF0FF33002100E0294676
:100CD000A3420BD94D1C01FB0223B0FBF3F39C4252
:100CE000F6D2FF2DF3D902320021F1E73046FFF7AB
:100CF000D9FF70BD10B50446FFF7BEFFFFF762FFD6
:100D00002046FFF7C3FFFFF75DFF636823F004038E
:100D10006360236823F0FF0343F007032360024965
:100D20002046FFF7C8FF10BDA0860100094B98427E
:100D30000BD003F58053984209D0A3F58023984245
:100D400001D0002070470120704702207047032027
:100D5000704700BF00100C4030B583B00446FFF769
:100D6000E5FF01231A4619460E4D35F81000FFF72E
:100D70000BFF0723A3600023E3656360E360236246
:100D8000E36463652365084B9C4206D00323E3605C
:100D90001023A362019B03B030BD00232361A3692C
:100DA0000193F3E7F41C001A0020084038B505460B
:100DB0000C46FFF7BBFF0C4B33F81000FFF736FF74
:100DC0002101B0FBF1F1CAB2EB6843F08003EB60A4
:100DD0002A60C1F307236B60EB6823F08003EB60AC
:100DE000B0FBF1F0000938BDEC1C001A2DE9F04F02
:100DF00083B001908846FFF799FF324B33F810001B
:100E0000FFF714FF06464FF0FF3701244FF0000BA9
:100E1000A246D9462AE042424B1C17E00AB31746C5
:100E2000AB46A24699460135AC421ED9330930077C
:100E3000A4FB000104FB0311621908FB02F200236A
:100E400000F0F0FC02460B460028E4DB9742EAD3B0
:100E5000002BE8D0190CE6D1022BDFD8002DDDD015
:100E6000E1E71746AB46A246994601341FB10F2C65
:100E700001D80025D8E7B9F1000F1ED0019A11461C
:100E8000D36843F08003D3605FFA89F31360C9F33A
:100E900007235360D36823F08003D3604FEA0A131B
:100EA000DBB20BF00F0213438B6233090AFB03F32F
:100EB000DA4409FB0AF9B3FBF9F9484603B0BDE887
:100EC000F08F00BFEC1C001A012909D1C0EBC00053
:100ED000044B03EB80000269137DDBB2042BFBD0D3
:100EE000704700BF0000001070B50446074EC500F3
:100EF000C0EBC00306EB83039888FFF763FE2C1B4F
:100F000056F824306C229A6170BD00BF00000010BA
:100F10002DE9F041044688460B4DC600C0EBC003E6
:100F20009F0005EB83039888FFF780FEB0FBF8F184
:100F3000EB594A081A61341B55F824301869091A0C
:100F40005961BDE8F08100BF00000010034B9842DA
:100F500001D0032070470420704700BF00400E40BE
:100F600070B50D4614461E46FFF7F0FFFFF75EFE14
:100F700055B104FB06F404EB40006400B0FBF4F050
:100F8000C0B20138C0B270BD04EB840304EB43046B
:100F9000F1E7036823F0E06343EA0163036070470D
:100FA000043150F82130002B04DAC3F38913138085
:100FB000012070470020704738B505460C46FFF702
:100FC000C5FF01231A461946FFF7DEFD0021E9603F
:100FD000084A2260217161710B232846FFF7C0FF88
:100FE000000240F4001023795B0403F46023034300
:100FF0002B6038BD801A060008B54FF48072C260BD
:1010000000220260FFF7A2FFFFF7F6FD08BD08B55A
:10101000FFF7C6FF08BD012A0AD0022A10D00AB184
:1010200000207047006B20FA01F101F001007047C9
:101030000831C9B2006B20FA01F101F001007047DC
:10104000036B1B0C14BF012000207047012A07D03E
:10105000C368012202FA01F123EA0101C16070476D
:10106000C36802FA01F11943C160704708B501294C
:1010700004D932B1036843F000630360FFF789FFCE
:1010800008BD036823F000630360F7E770B5054609
:101090000E46046824F46F2424F470640A600B790B
:1010A000C3F10B03DBB24979FFF75AFF44EA00248E
:1010B00033795B0403F4602323432B6070BD08B5D0
:1010C0000A710A68FFF7E2FF08BD012A0BD0036826
:1010D00023F0E06303600368012202FA01F123EACE
:1010E000010101607047036802FA01F119430160D0
:1010F000704738B504460D460021FFF74AFF25B971
:10110000236823F48033236038BD236843F480339D
:101110002360F9E770B58AB005460E4614464CF2D6
:1011200050330993062818D00023012229460420B1
:10113000FFF7E4FC4A4A536C43F0010353648DF813
:10114000085001A93046FFF753FC464B9E4216D982
:10115000019B13F0400F03D0FEE7FFF7ABFBE3E783
:1011600013F0800F05D023F08003019300250126A2
:1011700007E0049B013304930125002601E00025CC
:101180002E469DF80820019B43EA0263059A43EA34
:101190000243039A43EA0233049A43EA022343F4E4
:1011A00000632F4A53642E4B1B6C13F0010FFAD0CF
:1011B0000023012209210420FFF7A0FC06B34CF212
:1011C00050330993099B5A1E0992002BFAD1019BB7
:1011D00043F0800301939DF8082043EA0263059AD7
:1011E00043EA0243039A43EA0233049A43EA02239E
:1011F00043F400631A4A5364002C2ED10AB070BD28
:10120000002DF9D04CF250330993099B5A1E0992D4
:10121000002BFAD1049B5A1E04929DF80810019BE2
:1012200043EA0163059943EA0143039943EA013321
:1012300043EA022343F40063094A5364DCE70A48A3
:1012400000EB8401CB788A78497810F82400FFF706
:1012500055FC0134112CF2D9D0E70024FAE700BF85
:101260000000054080778E06FC1C001A08B50B4A6A
:101270000B4B9A6003F50C731B6903F47F63202BFF
:1012800004D0FFF735F9FFF7F3F908BD044AD2F8A7
:10129000883043F47003C2F88830F2E70000001A87
:1012A00000ED00E0044B1860044A136843F00103AA
:1012B00013600120704700BF38000010001000E0EC
:1012C00030B40B4D00EB80002C182856087094F9B0
:1012D0000110117094F902201A7094F90320029BF6
:1012E0001A7094F90420039B1A7030BC704700BF39
:1012F000441D001A10F1020F00F0C68070B584B0D2
:101300000C46B0F1FF3F00F0C18000238DF80F3094
:101310008DF80E308DF80D308DF80C308DF80B30C7
:101320000DF10B03019303AB00930DF10D030DF1D0
:101330000E020DF10F01FFF7C3FF052C00F2A9808B
:10134000DFE804F00880264462035348FFF7ACF955
:1013500001209CE09DF80F109DF80E309DF80D20A7
:1013600042F0D00203EB41134C4941F823209DF891
:101370000C309DF90B20012000FA02F1464C03F5D8
:10138000006354F8232022EA010244F823207EE07F
:101390009DF80F109DF80E309DF80D2042F0C00210
:1013A00003EB41133D4941F823209DF80C309DF992
:1013B0000B20012000FA02F1374C03F5006354F8CA
:1013C000232022EA010244F8232060E09DF80F1058
:1013D0009DF80E309DF80D2042F0D80203EB41132A
:1013E0002E4941F823209DF80C309DF90B20012057
:1013F00000FA02F1284C03F5006354F8232022EA96
:10140000010244F8232042E09DF80F109DF80E30B1
:101410009DF80D2042F0C80203EB41131F4941F82B
:1014200023209DF80C309DF90B20012000FA02F1D9
:10143000194C03F5006354F8232022EA010244F812
:10144000232024E09DF80F109DF80E309DF80D200C
:1014500042F0D00203EB4113104941F823209DF8DC
:101460000C009DF90B1001228A400B4B00F5006522
:1014700053F82560324343F82520C9B203EB4013EB
:1014800000225A54204602E000207047002004B099
:1014900070BD0020FBE700BF00400F400060084027
:1014A00030B583B018B101284AD003B030BD264B07
:1014B0006D4693E8030085E80300244C2946204646
:1014C000FFF77AFD00212046FFF713FE204A294648
:1014D0002046FFF7DBFD002201212046FFF7F5FD46
:1014E000002201212046FFF7B1FD00220221204603
:1014F000FFF7EBFD002202212046FFF7A7FD0022A7
:1015000003212046FFF7E1FD002203212046FFF7DB
:101510009DFD002204212046FFF7D7FD0022042173
:101520002046FFF793FD0B4AD2F8883C43F01003A6
:10153000C2F8883C002205212046FFF787FDB4E76A
:101540000248FFF759FDB0E72C1E001A00300E408C
:10155000400D03000060084070B582B0441CE4B246
:101560000026ADF80660114D012221462846FFF7FE
:10157000ACFD324601212846FFF778FD00222146C6
:101580000A48FFF748FD0128F8D1084D0DF1060281
:1015900021462846FFF73BFD002221462846FFF75B
:1015A00094FDBDF8060002B070BD00BF00300E40D3
:1015B000014BD3E9000170476000001018B1044BE3
:1015C00007221A607047024B00221A60704700BF62
:1015D00010E000E038B502460B4652EA030128D07D
:1015E00010F1FF3443F1FF35002D08BF322C25D216
:1015F0001349C1E9002313490C68A4FB000104FB53
:1016000003114FF47A72002300F00CF90138B0F1A5
:10161000807F09D20C4B58600C4AE02182F82310DD
:1016200000229A6007221A600120FFF7C7FF0120FD
:1016300005E00020FFF7C2FF002000E0002038BDD9
:10164000400000107000001010E000E000ED00E02D
:1016500008B5074A13685168013341F1000113606E
:101660005160044B1B6813B1034A1068984708BDCA
:1016700060000010680000105C00001000EB4000EB
:10168000034B53F82030586900F02000704700BF2A
:10169000341E001A00EB4000024B53F82030196052
:1016A000704700BF341E001A2DE9F84304468946EE
:1016B000194D00EB400305EB830655F823703846BF
:1016C000FFF74AFB49463846FFF770FB0723BB602C
:1016D0003B680123FB6530797379B27942F01802D7
:1016E0000E4903EB401341F82320F079337A727AE4
:1016F00042F0D00203EB401341F82320012C01D02B
:10170000BDE8F883064AD36C43F03003D3641A2251
:10171000C1F80823F4E700BF341E001A0060084037
:101720000010084038B504460D462046FFF7A6FFD6
:101730000028FAD029462046FFF7ACFF38BD38B55F
:1017400005460C46217821B12846FFF7EBFF01340E
:10175000F8E738BD08B5044B1B681B68DB68034A13
:101760001068984708BD00BF740000106C0000109E
:1017700008B5FEF79BFF1A4B1868FFF793FD012091
:101780000021FFF727FF05210020FFF7B3FD00210F
:101790002420FFF7AFFD00212520FFF7ABFD00213E
:1017A0002620FFF7A7FD00212720FFF7A3FD012139
:1017B0002820FFF79FFD01212920FFF79BFD012134
:1017C0002A20FFF797FD01212B20FFF793FD012130
:1017D0002C20FFF78FFD01212D20FFF78BFD08BD89
:1017E00070000010F8B50446057C3DB9FFF7E0FE37
:1017F000C4E90001012323742846F8BDFFF7D8FE91
:1018000023686268C61A61EB0207D4E902239F428B
:1018100008BF964203D3002323740125ECE700257B
:10182000EAE7FFFF53B94AB9002908BF00281CBFE7
:101830004FF0FF314FF0FF3000F06EB9ADF1080C02
:101840006DE904CE00F006F8DDF804E0DDE90223DE
:1018500004B070472DE9F047089D04468C46002BE4
:1018600040F083808A42174647D9B2FA82F242B1E9
:10187000C2F1200024FA00F09140974040EA010CA8
:1018800094404FEA1748230CBCFBF8F61FFA87FE7A
:1018900008FB16C143EA014306FB0EF1994209D940
:1018A000FB1806F1FF3080F01981994240F2168151
:1018B000023E3B445B1AA4B2B3FBF8F008FB1033C2
:1018C00044EA034400FB0EFEA64509D93C1900F189
:1018D000FF3380F00581A64540F2028102383C4486
:1018E00040EA0640A4EB0E0400261DB1D4400023BC
:1018F000C5E900433146BDE8F08702B9FFDEB2FA20
:1019000082F2002A50D1CB1B4FEA174E1FFA87F8FC
:101910000126B3FBFEFC210C0EFB1C3341EA034104
:1019200008FB0CF38B4207D979180CF1FF3002D277
:101930008B4200F2E9808446C91AA3B2B1FBFEF0E3
:101940000EFB101143EA014408FB00F8A04507D93B
:101950003C1900F1FF3302D2A04500F2D9801846AD
:10196000A4EB080440EA0C40BFE78B4209D9002DE4
:1019700000F0B1800026C5E9000130463146BDE8DF
:10198000F087B3FA83F6002E4AD18B4202D382420B
:1019900000F2B880841A61EB030101208C46002D0F
:1019A000A8D0C5E9004CA5E7C2F1200320FA03F650
:1019B000974001FA02F04FEA174ED9403043030C2A
:1019C000B1FBFEF61FFA87F80EFB161143EA01433E
:1019D00006FB08F1994204FA02F409D9FB1806F152
:1019E000FF3C80F08D80994240F28A80023E3B4469
:1019F0005B1A81B2B3FBFEF00EFB103341EA0341E8
:101A000000FB08F38B4207D9791800F1FF3C73D231
:101A10008B4271D902383944CB1A40EA064678E73E
:101A2000C6F1200C03FA06F422FA0CF31C4320FA48
:101A30000CF701FA06F34FEA144E21FA0CF11F439A
:101A40003B0CB1FBFEF91FFA84F80EFB191143EAB7
:101A5000014109FB08FA8A4502FA06F200FA06F388
:101A600008D9611809F1FF3048D28A4546D9A9F151
:101A700002092144A1EB0A01BFB2B1FBFEF00EFB4B
:101A8000101147EA014700FB08F8B84507D9E719E4
:101A900000F1FF312ED2B8452CD90238274440EA54
:101AA0000940A7EB0807A0FB02894F45C6464946F7
:101AB0001AD317D05DB1B3EB0E0267EB010707FA3B
:101AC0000CFCF2404CEA0202F740C5E90027002670
:101AD0003146BDE8F0872E4628460BE70646E9E684
:101AE0001846FDE64345E5D2B8EB020E69EB04016A
:101AF0000138DFE70846D2E760468DE78146B9E75F
:101B0000664675E730464AE7ACF1020C394413E704
:101B100002383C4424E700BF704700BF70B50D4D4C
:101B20000D4C641BA4100026A64209D10B4D0C4C91
:101B3000FEF78BFC641BA4100026A64205D170BDE5
:101B400055F8043B98470136EEE755F8043B9847B3
:101B50000136F2E77C1E001A7C1E001A7C1E001A59
:101B6000801E001A02440346934200D1704703F8D6
:101B7000011BF9E77A797877767574737271706FF3
:101B80006E6D6C6B6A69686766656463626139383B
:101B90003736353433323130313233343536373805
:101BA000396162636465666768696A6B6C6D6E6FE4
:101BB000707172737475767778797A0056616C6F8C
:101BC0007220414443204348313A20000D0A00FF6F
:101BD000010F01010200440002014400020244001E
:101BE000020A4000020B4000020C400001005000BD
:101BF0000101500001025000010650000601500092
:101C0000060450000605500006075400060854005C
:101C100006095000060A5000060B5000060C500042
:101C20000F04F0000103D5000104D50007011600E0
:101C30000702560002035200020452000905520036
:101C400009065700060257000000000000040008C3
:101C500000090109050005010502000E010B010C38
:101C6000030003030304050F051003050306030720
:101C70000208FFFF001BB700030F0F0FFF00FFFF5D
:101C8000000005000A002000240009004000400078
:101C900005006000A6000400C000C3000200E000D0
:101CA000E000010000010001030020012001060006
:101CB000400140010C004201420119006201620131
:101CC0001300820182011200A201A2011100C201CF
:101CD000C2011000E201E2010F00020202020E0046
:101CE000220222020D00230223021C00C201A201D3
:101CF0008201620181008200A100A20000010100B6
:101D0000090901000A090100010701010209010096
:101D1000060901000C0901010D0901000E0901006D
:101D20000F09010010090100110901001209010049
:101D30001309010014110100191101001A11010009
:101D40001B1101000401000201070500030D01053C
:101D50000001080402000202040300020304000060
:101D60000200070400030C03020405090301040533
:101D70000802030405030204040504060C0002081B
:101D8000060B0003070609000305060704050F06F6
:101D90000400030304040002040405000205040611
:101DA000000206040804050C040A04050E010300E1
:101DB000000A011400000F011200000D01110000C3
:101DC0000C0110000003070700030F0001000001D1
:101DD0000000000000060A000306060804051006BD
:101DE000050003040601000300040904050D0104B5
:101DF00000000B010F0000020100000004010100BF
:101E000000080102000009010600010902000405A2
:101E10000002010405010202040502020A00000E8C
:101E2000020B00010B020C00010CFFFF801A0600E0
:101E30000A0000000010084006040206050218000F
:101E4000001008400905070906071800002008408F
:101E5000000000000000190000100C4007010607F8
:101E600002061A0000100C40010F010110011A00B7
:0C1E700000200C400203020204021B00D0
:041E7C00A106001AA1
:081E8000D4F9FF7F010000000E
:101E880000100A4022000000C90E001A00000000DD
:101E980000000000000000000000000000000E40EC
:101EA80001000000C90E001A000000000000000038
:101EB800000000000000000000CB280CFFFFFFFF1F
:081EC800010000000000000011
:040000051A0003C119
:00000001FF
