:020000041A00E0
:1000000000800010091A001A7B01001A7D01001AF5
:100010007F01001A8101001A8301001A7C5EFF53E0
:100020000000000000000000000000008501001A30
:100030008701001A000000008901001AD91D001A6A
:100040007901001A7901001A7901001A00000000F4
:100050007901001A7901001A7901001A7901001A50
:10006000051E001A7901001A7901001A7901001A97
:100070007901001A7901001A7901001A7901001A30
:100080007901001A7901001A7901001A7901001A20
:100090007901001A7901001A7901001A7901001A10
:1000A0007901001A7901001A7901001A7901001A00
:1000B0007901001A7901001A7901001A7901001AF0
:1000C0007901001A7901001A7901001A7901001AE0
:1000D0007901001A7901001A7901001A7901001AD0
:1000E0007901001A7901001A7901001A7901001AC0
:1000F000000000007901001A7901001A7901001A44
:10010000000000007901001A7901001A7901001A33
:100110007901001A9026001A000000104800000023
:100120009026001A00000810000000009026001A17
:1001300000000020000000009026001A008000202F
:10014000000000009026001A00C0002000000000FF
:10015000480000101401000000000810000000001A
:1001600000000020000000000080002000000000CF
:1001700000C0002000000000FEE7FEE7FEE7FEE70B
:10018000FEE7FEE7FEE7FEE7FEE7FEE70023934219
:100190000AD210B450F8044B41F8044B0433934294
:1001A000F8D35DF8044B7047704700238B4204D2AC
:1001B000002240F8042B0433F8E77047FFFFFFFFED
:1001C000FFFFFFFFFFFFFFFFFFFFFFFFFFFFFFFF3F
:1001D000FFFFFFFFFFFFFFFFFFFFFFFFFFFFFFFF2F
:1001E000FFFFFFFFFFFFFFFFFFFFFFFFFFFFFFFF1F
:1001F000FFFFFFFFFFFFFFFFFFFFFFFFFFFFFFFF0F
:10020000FFFFFFFFFFFFFFFFFFFFFFFFFFFFFFFFFE
:10021000FFFFFFFFFFFFFFFFFFFFFFFFFFFFFFFFEE
:10022000FFFFFFFFFFFFFFFFFFFFFFFFFFFFFFFFDE
:10023000FFFFFFFFFFFFFFFFFFFFFFFFFFFFFFFFCE
:10024000FFFFFFFFFFFFFFFFFFFFFFFFFFFFFFFFBE
:10025000FFFFFFFFFFFFFFFFFFFFFFFFFFFFFFFFAE
:10026000FFFFFFFFFFFFFFFFFFFFFFFFFFFFFFFF9E
:10027000FFFFFFFFFFFFFFFFFFFFFFFFFFFFFFFF8E
:10028000FFFFFFFFFFFFFFFFFFFFFFFFFFFFFFFF7E
:10029000FFFFFFFFFFFFFFFFFFFFFFFFFFFFFFFF6E
:1002A000FFFFFFFFFFFFFFFFFFFFFFFFFFFFFFFF5E
:1002B000FFFFFFFFFFFFFFFFFFFFFFFFFFFFFFFF4E
:1002C000FFFFFFFFFFFFFFFFFFFFFFFFFFFFFFFF3E
:1002D000FFFFFFFFFFFFFFFFFFFFFFFFFFFFFFFF2E
:1002E000FFFFFFFFFFFFFFFFFFFFFFFFFFFFFFFF1E
:1002F000FFFFFFFFFFFFFFFFFFFFFFFFFFFFFFFF0E
:100300000023037343738373C3730374437480F8CC
:10031000203080F8213080F8223080F8283080F8B2
:10032000293080F82C3080F82D3080F82E3080F87D
:100330002F3080F8303080F8313080F8323080F85B
:10034000333080F8343080F8353080F836307047FC
:10035000012380F820304369436270470223037011
:1003600000238360704710B50446FFF7F1FF0323B5
:1003700023700023A36010BD042303700023836057
:100380007047052343700123836070470023037087
:1003900083607047002303708360704700230370FD
:1003A00083607047002343700123836070470023FC
:1003B00083700223836070470023C370032383602C
:1003C0007047002303710423836070470023437147
:1003D00005238360704708B5FFF7C0FF08BD08B567
:1003E000FFF7F9FF08BD08B5FFF7CBFF08BD08B55B
:1003F000FFF7F9FF08BD0020704738B50D4631B151
:100400000446FFF7F8FF10B9237C13B91D462846B0
:1004100038BD2046FFF7BEFF2046FFF79FFFF6E7F7
:1004200038B50D4641B10446FFF7E5FF20B9637CBE
:1004300023B9237C4BB91D46284638BD2046FFF71B
:10044000ADFF2046FFF78FFFF6E72046FFF7A6FF38
:100450002046FFF783FFEFE708B50122042101F0F2
:100460001FFD08BD10B50446FFF7F6FF0B23A37070
:100470000223A36010BD08B5FFF7F4FF08BD08B55F
:10048000FFF7F9FF08BD08B50022012101F008FDC2
:1004900008BD10B50446FFF7F6FF0C23E3700323F5
:1004A000A36010BD08B5FFF7F4FF08BD08B5FFF75E
:1004B000F9FF08BD08B50022022101F0F1FC08BDDA
:1004C00010B50446FFF7F6FF0E2323710423A36043
:1004D00010BD08B5FFF7F4FF08BD08B5FFF7F9FF39
:1004E00008BD08B50022052101F0DAFC08BD10B5F1
:1004F0000446FFF7F6FF132363710523A36010BDC5
:1005000008B5FFF7F4FF08BD08B5FFF7F9FF08BD10
:1005100038B50D46002949D0044690F8203013B173
:10052000426A082A0DD013B1626A042A13D013B1AB
:10053000626A022A1CD0C3B3636A012B25D000254E
:1005400034E0FFF72FFF0123E37384F821302046C6
:10055000FFF717FF2AE02046FFF724FF002262770B
:100560000321204601F09CFC2046FFF70AFF1DE016
:100570002046FFF717FF012262770321204601F092
:100580008FFC2046FFF7FDFE10E02046FFF70AFF34
:100590000123A37384F8213000220421204601F0B6
:1005A0007FFC2046FFF7EDFE00E01D46284638BDE3
:1005B00008B500F12C0101F089FC08BD08B5002246
:1005C00002708260FFF7F4FF08BD38B50D4639B1FF
:1005D0000446FFF710FF18B994F82C3013B91D46E4
:1005E000284638BD2046FFF7E9FF2046FFF7C4FE46
:1005F000F6E708B500F12D0101F068FC08BD08B56B
:100600000022827002228260FFF7F3FF08BD08B566
:1006100000F12E0101F05AFC08BD08B500228270DD
:1006200002228260FFF7F3FF08BD08B500F12F0139
:1006300001F04CFC08BD08B50022827002228260E5
:10064000FFF7F3FF08BD08B500F1300101F03EFCF3
:1006500008BD08B50022827002228260FFF7F3FF16
:1006600008BD10B5044600F1310101F02FFC04F182
:100670003201204601F02AFC10BD08B5002282702C
:1006800002228260FFF7EDFF08BD08B500F13301DB
:1006900001F01CFC08BD08B50022C2700322826074
:1006A000FFF7F3FF08BD38B50D4621B1044690F8B9
:1006B000333013B91D46284638BDFFF7ECFF2046FE
:1006C000FFF7E7FEF7E708B500F1340101F0FEFBA4
:1006D00008BD08B50022027104228260FFF7F3FF13
:1006E00008BD38B50D4621B1044690F8343013B931
:1006F0001D46284638BDFFF7ECFF2046FFF7E0FE19
:10070000F7E708B500F1360101F0E0FB08BD08B5D8
:100710000022427105228260FFF7F3FF08BD08B591
:1007200000F1350101F0D2FB08BD08B5002242718D
:1007300005228260FFF7F3FF08BD08B54379112B4E
:1007400002D0122B03D008BDFFF7EFFFFBE7FFF746
:10075000DEFFF8E708B5FFF7F0FF08BD38B50D4636
:1007600021B1044690F8293013B91D46284638BDFA
:10077000FFF7F0FF2046FFF7BAFEF7E708B50023C2
:10078000642200F12C0101F093FB08BD10B5044672
:10079000FFF7F4FF012323700023A36010BD38B5D9
:1007A0000D4631B10446FFF726FE10B9637C13B93C
:1007B0001D46284638BD2046FFF7E8FD2046FFF7D6
:1007C000E5FFF6E710B5044600234FF4FA7200F196
:1007D000330101F06DFB01221146204601F060FB60
:1007E00010BD10B50446FFF7EDFF0D23E3700323A2
:1007F000A36010BD38B50D4621B1044690F82130F4
:1008000013B91D46284638BDFFF7D6FD2046FFF731
:10081000E8FFF7E710B5044600234FF4FA7200F141
:10082000340101F045FB01220221204601F038FB92
:1008300010BD10B50446FFF7EDFF0F23237104230D
:10084000A36010BD38B50D4621B1044690F82230A2
:1008500013B91D46284638BDFFF7B3FD2046FFF704
:10086000E8FFF7E710B504460023FA2200F136014D
:1008700001F01EFB00220521204601F011FB10BDF6
:1008800010B50446FFF7EEFF122363710523A36042
:1008900010BD38B50D4609B9284638BD0446FFF7E6
:1008A0005DFF0028F8D194F835300BB91D46F3E709
:1008B0002046FFF73AFF2046FFF7E2FFECE708B5D6
:1008C000FFF7DEFF08BD08B5FFF7F9FF08BD08B563
:1008D000FFF7F9FF08BD38B50D4621B1044690F881
:1008E000283013B91D46284638BDFFF76FFD204656
:1008F000FFF7EDFFF7E710B5044600234FF4FA7257
:1009000000F1350101F0D4FA01220521204601F061
:10091000C7FA10BD10B50446FFF7EDFF1123637150
:100920000523A36010BD38B50D4609B9284638BD6A
:100930000446FFF713FF0028F8D194F836300BB9BE
:100940001D46F3E72046FFF7E2FE2046FFF7E2FFF1
:10095000ECE710B5044600234FF47A7200F1310140
:1009600001F0A6FA00234FF47A7204F13201204616
:1009700001F09EFA204601F0CCFA1423A36110BDC9
:1009800010B50446FFF7E5FF0A23A3700223A36016
:1009900010BD38B50D4621B1044690F82D3013B97D
:1009A0001D46284638BDFFF72AFE2046FFF7E8FF20
:1009B000F7E710B5044600234FF47A7200F12D01D9
:1009C00001F076FA204601F0A0FA002323770123F4
:1009D00084F8293010BD10B50446FFF7EAFF06235E
:1009E000A3700223A36010BD38B50D4619B10446AB
:1009F000837B13B91D46284638BDFFF7D8FC204637
:100A0000FFF7E9FFF7E710B5044600234FF47A72C9
:100A100000F12E0101F04CFA204601F077FA012393
:100A200084F82830A369013BA36110BD10B50446CA
:100A3000FFF7E9FF0723A3700223A36010BD38B5B9
:100A40000D4669B1044683690BB9027F52B90BB9EF
:100A5000237F6BB1E37B93B994F82E30B3B91D4675
:100A6000284638BDFFF7D9FD2046FFF7B4FFF7E76A
:100A70002046FFF7D2FD2046FFF782FFF0E7204631
:100A8000FFF7CBFD2046FFF7A6FFE9E72046FFF77B
:100A9000C4FD2046FFF7CAFFE2E738B50D4671B145
:100AA000044690F830304BB1037F0BB91D4606E089
:100AB000FFF7CFFD2046FFF7B9FF00E01D462846AF
:100AC00038BD10B5044600234FF47A7200F13001AE
:100AD00001F0EEF9204601F01DFA204601F018FA67
:100AE0000123237784F8223010BD10B50446FFF7A8
:100AF000E8FF0923A3700223A36010BD38B50D469B
:100B000021B1044690F82F3013B91D46284638BD50
:100B1000FFF791FD2046FFF7E8FFF7E710B5044621
:100B200000234FF47A7200F12F0101F0C1F9204641
:100B300001F0EDF910BD10B50446FFF7EFFF0823F3
:100B4000A3700223A36010BD38B50D46D1B1044691
:100B500090F831300BB1437F33B994F8323083B120
:100B6000637F3BB100250DE0FFF787FD2046FFF7CF
:100B7000E2FF07E02046FFF780FD2046FFF756FF23
:100B800000E01D46284638BD38B504460023052B35
:100B900003DC0022E2540133F9E70025A56020467A
:100BA000FFF7AEFBA56125776577656238BD10B5A7
:100BB0000446FFF714FC2046FFF719FC2046FFF718
:100BC0005EFC2046FFF772FC2046FFF786FC2046BD
:100BD000FFF79AFC10BDFFFF10B5044600238360A9
:100BE00006E001212046FFF7F0FCA3680133A36073
:100BF000A368052B00F28380E35C013B122BF4D841
:100C000001A252F823F000BFE30B001A550C001AA2
:100C10005F0C001A690C001A730C001A7D0C001A84
:100C2000870C001A910C001A9B0C001AA50C001AD4
:100C3000AF0C001AB90C001AC30C001ACD0C001A24
:100C4000D70C001AEB0B001AE10C001AEB0C001A7F
:100C5000F50C001A01212046FFF7A1FDC5E701218F
:100C60002046FFF7CAFBC0E701212046FFF7D8FB6B
:100C7000BBE701212046FFF74BFCB6E701212046E8
:100C8000FFF787FEB1E701212046FFF7D8FEACE76A
:100C900001212046FFF732FFA7E701212046FFF799
:100CA000FCFEA2E701212046FFF74EFF9DE7012150
:100CB0002046FFF799FE98E701212046FFF79AFDAD
:100CC00093E701212046FFF7EEFC8EE70121204645
:100CD000FFF7B8FD89E701212046FFF702FD84E711
:100CE00001212046FFF7D5FD7FE701212046FFF7D0
:100CF0001AFE7AE701212046FFF7EDFD75E7204651
:100D0000FFF7FEFA10BD00BF2C30884204DC0B3028
:100D1000884201D901230B70704701230374704787
:100D2000416101234374704700231C2B12D810B477
:100D3000094A02EB830112F823404A78488802EB03
:100D40004412064941F8220001331C2BF0D95DF80A
:100D5000044B7047704700BF3024001A0060084001
:100D600010B5174AD2F8203123F4704343F41043EE
:100D7000C2F82031D2F8243123F4704343F41043F5
:100D8000C2F8243101220F49062000F073FD00242F
:100D90004CB10B4B5A6822F00C025A605A6842F070
:100DA00003025A6010BD084800EB840101238A78D1
:100DB000497810F8240000F00BFB0134E8E700BF8D
:100DC0000030044000CB280C2C24001A08B5FFF793
:100DD000ABFFFFF7C5FF08BD0022052A19D870B484
:100DE0000C4911F8125001EB42014C780A4B05F501
:100DF000006653F826100120A040014343F8261056
:100E000003EB4513002119550132052AE8D970BCBE
:100E100070477047B024001A00400F400023032B96
:100E200016D830B40B4911F8132001EB43014D786B
:100E3000094C02F5006254F822100120A84021EA72
:100E4000000144F822100133032BEBD930BC70476A
:100E5000704700BFA824001A00400F400023082B51
:100E600016D830B40B4911F8132001EB43014D782B
:100E7000094C02F5006254F822100120A84021EA32
:100E8000000144F822100133082BEBD930BC704725
:100E9000704700BFBC24001A00400F4010B582B05C
:100EA000084C6946204600F0A5FC074A69462046E2
:100EB00000F0C0FC00226946204600F0D4FC02B0DD
:100EC00010BD00BF00300E40801A060010B50B4C5C
:100ED000204600F05FFB636823F00403636023682F
:100EE00023F0FF0343F0070323600549204600F089
:100EF00032FB636843F00203636010BD00500C4096
:100F0000A086010008B5002000F01EFC044B40F64E
:100F10000802C3F8842C0349002000F029FC08BD16
:100F20000060084040420F0010B5074C204600F01A
:100F300063FB4FF4E131204600F088FB0323E360BC
:100F40000123E36510BD00BF00100C4008B5FFF79A
:100F5000EBFF094800F012F8FFF780FFFFF79EFF54
:100F6000FFF7B4FFFFF7CEFFFFF736FFFFF756FF9F
:100F700000F006F808BD00BF00400F407047FFFFBB
:100F800008B5692000F0A2FA014B186008BD00BF47
:100F9000A4000010F0B40B6813F0800F02D023F00F
:100FA00040030B60074601253AE04B6903FB02F35F
:100FB000B3FBF5F31CE01C46B0EB040C27D46745EB
:100FC00006D98D60771CCF600A618C61CB61674662
:100FD0000132B2F5807F1DDC0C6814F0400FE4D0C4
:100FE000731C02FA03FC4B6903FB0CF3B3FBF5F330
:100FF000DFF838C06345EBD9DFF834C0634509D862
:1010000014F0800FD7D1741C23FA04F4D4E7CCF188
:10101000000CD4E70136032E01DC0122D9E70135AB
:10102000042D01DC0026F6E7F0BC7047FF5E4C099A
:1010300000D01213F0B599B005460C465C22002191
:1010400001A801F0EBF980230093636905932379EC
:101050008DF8043069462846FFF79CFF069BAB429B
:1010600027D0EB1A2ED41E46109B23F0400310937A
:101070006369159323798DF8443010A92846FFF74A
:1010800089FF169BAB421FD0EB1A25D41F462B4B72
:101090009D4223D90E982D1A33D4AE423BDCBE427A
:1010A00031DC6D460FCD0FC495E80F0084E80F00CA
:1010B00006E06D460FCD0FC495E80F0084E80F00E1
:1010C00019B0F0BD5B42CEE710AD0FCD0FC495E86F
:1010D0000F0084E80F00F3E75B42D7E74023089353
:1010E00063690D9308A92846FFF754FF0E9BAB4296
:1010F000D0D108AD0FCD0FC495E80F0084E80F00E4
:10110000DEE76D42C9E710AD0FCD0FC495E80F00C3
:1011100084E80F00D4E7AF4207DB08AD0FCD0FC462
:1011200095E80F0084E80F00CAE710AD0FCD0FC49B
:1011300095E80F0084E80F00C2E700BF80778E06B5
:1011400030B4054600231C2000E001331C2817D1D1
:1011500003EB43020B4901EB4202117981420FD0AC
:1011600003EB4302074C34F81220AA42EDD803EBFC
:10117000430204EB42025288AA42E6D30846E5E75E
:1011800030BC7047DC24001A82B04FF47A730193AC
:101190000D4A936923F0020192698A4201D00A4AFA
:1011A000916123F00303094A1168094A914201D968
:1011B00043F00403044A9361019B5A1E0192002BE1
:1011C000FAD102B0704700BF00000540D024001AD9
:1011D000FF2C31011230054B53F8200010F0010FA5
:1011E00002D1C0F304607047112070470000054031
:1011F00000F11202034B53F82220034B185C00EA63
:101200009200704700000540D424001A08B5102849
:101210000AD8DFE800F0440B0D18210924272A2DF5
:1012200009093034383C4000002008BD1E48FCE766
:101230001E4BD3F82C3103F00703042B01D01C48BC
:10124000F3E70020F1E7194BD3F82C3103F0070343
:10125000042B27D01648E8E7164B1868E5E7164B2D
:101260001868E2E7154B1868DFE7144B5868DCE7AD
:1012700000F068F8D9E7002100F098F8D5E70121DF
:1012800000F094F8D1E7022100F090F8CDE70321B7
:1012900000F08CF8C9E7042100F088F8C5E74FF4A6
:1012A0000040C2E70648C0E7001BB700003004401A
:1012B00040787D01A424001AD024001A48000010B0
:1012C00080F0FA0238B505460C460879FFF79EFF14
:1012D0006061194B2B44194A934221D818B38023DB
:1012E00023600023A360E360B5FBF0F32361144A9D
:1012F000954203D903FB00F0A84207D021462846B7
:10130000FFF798FEA3688BB1013BA360236983B10B
:10131000E2680AB1013AE260013B2361002038BD76
:101320004FF0FF30FBE74FF0FF30F8E74FF0FF30B2
:10133000F5E74FF0FF30F2E7103A6BFF1005940B22
:10134000FF5E4C0970B582B0164D6C6CC4F303603F
:10135000FFF75CFF0646144A0192286C10F001006A
:101360001DD0C4F30742C4F30131C4F30125C4F313
:1013700080100132013102AB1D4415F8043C14F019
:10138000800F08D138B95800B2FBF0F2B6FBF1F08B
:1013900000FB02F003E0B6FBF1F002FB00F002B04C
:1013A00070BD00BF000005400102040838B50C46BE
:1013B0000846FFF70FFF05462046FFF719FF0446D2
:1013C0002846FFF723FF0134B0FBF4F038BDFFFFE0
:1013D00030B400F11604A40004F1804404F5A02404
:1013E00064681B2813D811291AD00E4D25400AB164
:1013F00045F400650BB145F0010545EA0161163081
:10140000800000F1804000F5A020416008E044F039
:1014100001041630800000F1804000F5A0204460F7
:1014200030BC7047FEF7FFE01B280DD800F1160313
:101430009B0003F1804303F5A023586810F0010FCF
:1014400004D1C0F304607047112070471120704729
:1014500008B5FFF7E9FFFFF7D9FE08BD71B9012113
:101460000AB141F00401022B0AD0B0F5A17F0AD3E2
:10147000A0F59170064B43F8301070470321EFE759
:1014800041F02001F1E72030024B43F83010704763
:101490000020054000100540B0F5A17F09D3094A9E
:1014A000A0F5917052F8303043F0010342F830302B
:1014B0007047054A203052F8303043F0010342F8BB
:1014C00030307047002005400010054010B503463D
:1014D000B0F5A17F08D3A0F591720D4951F83240C3
:1014E00014F0010006D110BD00F12002094951F8A5
:1014F0003240F5E71846FFF723FEFFF7A9FF14F087
:10150000E00F03D10123B0FBF3F0ECE70223FAE78D
:101510000020054000100540034B984201D0832075
:101520007047A520704700BF00500C40044B984204
:1015300002D040F2022070474FF4F170704700BFB4
:1015400000500C40036823F47F43090289B2194319
:1015500001600261704770B506460C46FFF7E6FF72
:10156000FFF7B4FF02224FF0FF33002100E02946CD
:10157000A3420BD94D1C01FB0223B0FBF3F39C42A9
:10158000F6D2FF2DF3D902320021F1E73046FFF702
:10159000D9FF70BD10B50446FFF7BEFFFFF77CFF13
:1015A0002046FFF7C3FFFFF777FF636823F00403CC
:1015B0006360236823F0FF0343F0070323600249BD
:1015C0002046FFF7C8FF10BDA0860100094B9842D6
:1015D0000BD003F58053984209D0A3F5802398429D
:1015E00001D000207047012070470220704703207F
:1015F000704700BF00100C4030B583B00446FFF7C1
:10160000E5FF01231A4619460E4D35F81000FFF785
:1016100025FF0723A3600023E3656360E360236283
:10162000E36463652365084B9C4206D00323E360B3
:101630001023A362019B03B030BD00232361A36983
:101640000193F3E75025001A002008402DE9F04FE0
:1016500083B001908846FFF7B9FF324B33F8100092
:10166000FFF734FF06464FF0FF3701244FF0000B21
:10167000A246D9462AE042424B1C17E00AB317465D
:10168000AB46A24699460135AC421ED93309300714
:10169000A4FB000104FB0311621908FB02F2002302
:1016A00000F01CFD02460B460028E4DB9742EAD31B
:1016B000002BE8D0190CE6D1022BDFD8002DDDD0AD
:1016C000E1E71746AB46A246994601341FB10F2CFD
:1016D00001D80025D8E7B9F1000F1ED0019A1146B4
:1016E000D36843F08003D3605FFA89F31360C9F3D2
:1016F00007235360D36823F08003D3604FEA0A13B3
:10170000DBB20BF00F0213438B6233090AFB03F3C6
:10171000DA4409FB0AF9B3FBF9F9484603B0BDE81E
:10172000F08F00BF4825001A012909D1C0EBC00085
:10173000044B03EB80000269137DDBB2042BFBD06A
:10174000704700BF0000001070B50446074EC5008A
:10175000C0EBC00306EB83039888FFF79DFE2C1BAC
:1017600056F824306C229A6170BD00BF0000001052
:101770002DE9F041044688460B4DC600C0EBC0037E
:101780009F0005EB83039888FFF7A0FEB0FBF8F1FC
:10179000EB594A081A61341B55F824301869091AA4
:1017A0005961BDE8F08100BF00000010034B984272
:1017B00001D0032070470420704700BF00400E4056
:1017C00070B50D4614461E46FFF7F0FFFFF77EFE8C
:1017D00055B104FB06F404EB40006400B0FBF4F0E8
:1017E000C0B20138C0B270BD04EB840304EB430403
:1017F000F1E7FFFF38B505460C46FFF7D7FF012399
:101800001A461946FFF72AFE0021E960084A2260BD
:10181000217161710B232846FFF7D2FF000240F4CB
:10182000001023795B0403F4602303432B6038BD6D
:10183000801A060070B505460E46046824F46F242D
:1018400024F470640A600B79C3F10B03DBB24979AD
:10185000FFF7B6FF44EA002433795B0403F4602306
:1018600023432B6070BD08B50A710A68FFF7E2FFD9
:1018700008BDFFFF70B58AB005460E4614464CF20F
:1018800050330993062818D000230122294604204A
:10189000FFF79EFD4A4A536C43F0010353648DF8F1
:1018A000085001A93046FFF70DFD464B9E4216D960
:1018B000019B13F0400F03D0FEE7FFF765FCE3E761
:1018C00013F0800F05D023F080030193002501263B
:1018D00007E0049B013304930125002601E0002565
:1018E0002E469DF80820019B43EA0263059A43EACD
:1018F0000243039A43EA0233049A43EA022343F47D
:1019000000632F4A53642E4B1B6C13F0010FFAD067
:101910000023012209210420FFF75AFD06B34CF2EF
:1019200050330993099B5A1E0992002BFAD1019B4F
:1019300043F0800301939DF8082043EA0263059A6F
:1019400043EA0243039A43EA0233049A43EA022336
:1019500043F400631A4A5364002C2ED10AB070BDC0
:10196000002DF9D04CF250330993099B5A1E09926D
:10197000002BFAD1049B5A1E04929DF80810019B7B
:1019800043EA0163059943EA0143039943EA0133BA
:1019900043EA022343F40063094A5364DCE70A483C
:1019A00000EB8401CB788A78497810F82400FFF79F
:1019B0000FFD0134112CF2D9D0E70024FAE700BF63
:1019C0000000054080778E065825001A08B50B4A9E
:1019D0000B4B9A6003F50C731B6903F47F63202B98
:1019E00004D0FFF7F3F9FFF7B1FA08BD044AD2F8C3
:1019F000883043F47003C2F88830F2E70000001A20
:101A000000ED00E07047FFFF10B572B6194B1A4A9F
:101A10001A600433194A1A60002305E0184A4FF08F
:101A2000FF3142F823100133072BF7D962B6154B6B
:101A300007E003F10C049A6859681868FEF7A6FBE2
:101A40002346114A9342F4D306E01C46596854F8E1
:101A5000080BFEF7AAFB23460C4A9342F5D3FFF787
:101A6000B5FF00F0B7FCFFF7CDFF00F055FA30BF2F
:101A7000FDE700BF003105400010DF10FFF7DF0178
:101A800080E200E01401001A5001001A7801001AE7
:101A900070477047044B1860044A136843F0010311
:101AA00013600120704700BF38000010001000E0F4
:101AB00030B40B4D00EB80002C182856087094F9B8
:101AC0000110117094F902201A7094F90320029BFE
:101AD0001A7094F90420039B1A7030BC704700BF41
:101AE000A025001A70B584B00C4600238DF80F3085
:101AF0008DF80E308DF80D308DF80C308DF80B30E0
:101B00000DF10B03019303AB00930DF10D030DF1E8
:101B10000E020DF10F01FFF7CBFF052C00F2A5809F
:101B2000DFE804F00981274563035148FFF726FAEF
:101B3000012004B070BD9DF80F109DF80E309DF887
:101B40000D2042F0D00203EB41134A4941F8232013
:101B50009DF80C309DF90B20012000FA02F1444C55
:101B600003F5006354F8232022EA010244F82320FD
:101B7000DFE79DF80F109DF80E309DF80D2042F024
:101B8000C00203EB41133B4941F823209DF80C3080
:101B90009DF90B20012000FA02F1354C03F500639A
:101BA00054F8232022EA010244F82320C1E79DF8DB
:101BB0000F109DF80E309DF80D2042F0D80203EB77
:101BC00041132C4941F823209DF80C309DF90B203E
:101BD000012000FA02F1264C03F5006354F823209B
:101BE00022EA010244F82320A3E79DF80F109DF894
:101BF0000E309DF80D2042F0C80203EB41131D4941
:101C000041F823209DF80C309DF90B20012000FAAB
:101C100002F1174C03F5006354F8232022EA010275
:101C200044F8232085E79DF80F109DF80E309DF8AD
:101C30000D2042F0D00203EB41130E4941F823205E
:101C40009DF80C009DF90B1001228A40084B00F50D
:101C5000006553F82560324343F82520C9B203EBF1
:101C6000401300225A54204663E7002061E700BF7A
:101C700000400F400060084010B584B00C460023BF
:101C80008DF80F308DF80E308DF80D308DF80C304A
:101C90008DF80B300DF10B03019303AB00930DF1A5
:101CA0000D030DF10E020DF10F01FFF701FF9DF87D
:101CB0000C309DF80B20003C18BF01245B0103F1A0
:101CC000402303F570239C54012004B010BD00B5DF
:101CD00085B000238DF80F308DF80E308DF80D3063
:101CE0008DF80C308DF80B300DF10B03019303AB25
:101CF00000930DF10D030DF10E020DF10F01FFF731
:101D0000D7FE9DF90C309DF80B205B0103F14023B9
:101D100003F57023985C003818BF012005B05DF80A
:101D200004FBFFFF30B1054A1060012021B1044BD4
:101D3000196070470020F9E700207047600000102C
:101D40005000001018B1044B07221A607047024B74
:101D500000221A60704700BF10E000E038B502466C
:101D60000B4652EA030128D010F1FF3443F1FF354E
:101D7000002D08BF322C25D21349C1E90023134995
:101D80000C68A4FB000104FB03114FF47A720023DA
:101D900000F0A4F90138B0F1807F09D20C4B5860F3
:101DA0000C4AE02182F8231000229A6007221A6070
:101DB0000120FFF7C7FF012005E00020FFF7C2FF69
:101DC000002000E0002038BD40000010A4000010FA
:101DD00010E000E000ED00E008B5074A1368516824
:101DE000013341F1000113605160044B1B6813B1D2
:101DF000034A1068984708BD5800001060000010A2
:101E00005000001008B5044B1B681B68DB68034AD0
:101E10001068984708BD00BFA800001064000010BB
:101E200008B5FFF7ADF81A4B1868FFF733FE01202D
:101E30000021FFF793FF05210020FFF753FE00214B
:101E40002420FFF74FFE00212520FFF74BFE002145
:101E50002620FFF747FE00212720FFF743FE012140
:101E60002820FFF73FFE01212920FFF73BFE01213B
:101E70002A20FFF737FE01212B20FFF733FE012137
:101E80002C20FFF72FFE01212D20FFF72BFE08BD90
:101E9000A4000010014B01221A7070476800001066
:101EA00008B5C8B228301146C0B2FFF7E5FE08BD3C
:101EB00000B583B0009313460A460B21024800F098
:101EC0008FF803B05DF804FBAC00001008B50A46BB
:101ED0000B21024800F09EF808BD00BFAC000010C6
:101EE00038B50024254600E00134032C0BD8E0B2BD
:101EF0002430C0B2FFF7EBFE0028F5D10123A34048
:101F00001D43EDB2F0E7284638BD70477047704773
:101F1000704770477047FFFF70B5FFF781FF0120E2
:101F20000021FFF71BFF00212048FFF7FBFE0B21DC
:101F30001F4800F043F81F4C2046FEF725FE2046C0
:101F4000FEF735FE20E01A4D2601A9591948FEF783
:101F5000DBFEAA590B21284600F08BF801340A2C2D
:101F600008D813482301C2580B2100F06EF800284E
:101F7000F4D0E8E7FFF7B4FF014690B10D48FEF753
:101F8000CFFE0C48FEF728FE30BF0B4B1B78002B12
:101F9000FAD00024084B1C700B21054800F07CF897
:101FA000DDE70448FEF7B9FEEBE700BF951E001A17
:101FB000AC0000106C0000106800001030B4002469
:101FC0008C420BD2250100EB0412002343515360D5
:101FD00093601373537393730134F1E730BC70470C
:101FE00070B400248C4212D2250100EB041645592E
:101FF0000DB10134F6E77360B36032609DF80C30C8
:102000003373012373730023B373104600E0002081
:1020100070BC704700238B4215D230B41C0100EB1A
:1020200003150459944204D001338B42F6D30020A7
:1020300007E000232B606B60AB602B736B73AB739B
:10204000104630BC70470020704770B4054600232E
:1020500000E001338B4209D21C0105EB031628591D
:102060009042F6D1B07B0028F3D000E0002070BC95
:10207000704700238B420ED230B41C0100EB0315D5
:102080000459944203D001338B42F6D301E000237C
:10209000AB7330BC7047704700238B421DD210B425
:1020A00006E0002454730124947301338B4211D24F
:1020B00000EB0312547B002CF7D094680CB1013C68
:1020C00094609468002CF0D1147B002CE9D0546803
:1020D0009460E8E75DF8044B7047704753B94AB91C
:1020E000002908BF00281CBF4FF0FF314FF0FF3020
:1020F00000F06EB9ADF1080C6DE904CE00F006F801
:10210000DDF804E0DDE9022304B070472DE9F04773
:10211000089D04468C46002B40F083808A42174677
:1021200047D9B2FA82F242B1C2F1200024FA00F09B
:102130009140974040EA010C94404FEA1748230C25
:10214000BCFBF8F61FFA87FE08FB16C143EA014301
:1021500006FB0EF1994209D9FB1806F1FF3080F019
:102160001981994240F21681023E3B445B1AA4B2A7
:10217000B3FBF8F008FB103344EA034400FB0EFE07
:10218000A64509D93C1900F1FF3380F00581A64529
:1021900040F2028102383C4440EA0640A4EB0E04BF
:1021A00000261DB1D4400023C5E900433146BDE8F7
:1021B000F08702B9FFDEB2FA82F2002A50D1CB1BBF
:1021C0004FEA174E1FFA87F80126B3FBFEFC210CDD
:1021D0000EFB1C3341EA034108FB0CF38B4207D989
:1021E00079180CF1FF3002D28B4200F2E98084466C
:1021F000C91AA3B2B1FBFEF00EFB101143EA014471
:1022000008FB00F8A04507D93C1900F1FF3302D2C2
:10221000A04500F2D9801846A4EB080440EA0C401F
:10222000BFE78B4209D9002D00F0B1800026C5E937
:10223000000130463146BDE8F087B3FA83F6002E40
:102240004AD18B4202D3824200F2B880841A61EBF9
:10225000030101208C46002DA8D0C5E9004CA5E75C
:10226000C2F1200320FA03F6974001FA02F04FEA88
:10227000174ED9403043030CB1FBFEF61FFA87F826
:102280000EFB161143EA014306FB08F1994204FADA
:1022900002F409D9FB1806F1FF3C80F08D809942C9
:1022A00040F28A80023E3B445B1A81B2B3FBFEF0EF
:1022B0000EFB103341EA034100FB08F38B4207D9C0
:1022C000791800F1FF3C73D28B4271D9023839443E
:1022D000CB1A40EA064678E7C6F1200C03FA06F46A
:1022E00022FA0CF31C4320FA0CF701FA06F34FEA2A
:1022F000144E21FA0CF11F433B0CB1FBFEF91FFAFF
:1023000084F80EFB191143EA014109FB08FA8A45DA
:1023100002FA06F200FA06F308D9611809F1FF3053
:1023200048D28A4546D9A9F102092144A1EB0A0104
:10233000BFB2B1FBFEF00EFB101147EA014700FBF4
:1023400008F8B84507D9E71900F1FF312ED2B84592
:102350002CD90238274440EA0940A7EB0807A0FB24
:1023600002894F45C64649461AD317D05DB1B3EB33
:102370000E0267EB010707FA0CFCF2404CEA02027E
:10238000F740C5E9002700263146BDE8F0872E4614
:1023900028460BE70646E9E61846FDE64345E5D242
:1023A000B8EB020E69EB04010138DFE70846D2E71B
:1023B00060468DE78146B9E7664675E730464AE7ED
:1023C000ACF1020C394413E702383C4424E700BF67
:1023D000704700BF70B50D4D0D4C641BA410002656
:1023E000A64209D10B4D0C4CFFF753FB641BA41004
:1023F0000026A64205D170BD55F8043B984701362A
:10240000EEE755F8043B98470136F2E78826001AB4
:102410008826001A8826001A8826001A02440346D5
:10242000934200D1704703F8011BF9E7010F010146
:10243000020044000201440002024400020A40007B
:10244000020B4000020C400001005000010150004E
:102450000102500001065000060150000604500021
:1024600006055000060754000608540006095000EF
:10247000060A5000060B5000060C50000F04F00036
:102480000103D5000104D50007011600070256001C
:1024900002035200020452000905520009065700C7
:1024A00006025700000000000004000800090109AE
:1024B000050005010502000E010B010C03000303DA
:1024C0000304050F05100305030603070208FFFFB9
:1024D000001BB700030F0F0FFF00FFFF00000500F8
:1024E0000A002000240009004000400005006000B0
:1024F000A6000400C000C3000200E000E0000100EC
:1025000000010001030020012001060040014001FC
:102510000C004201420119006201620113008201B4
:1025200082011200A201A2011100C201C201100029
:10253000E201E2010F00020202020E002202220268
:102540000D00230223021C00C201A20182016201CC
:1025500081008200A100A200000101000909010020
:102560000A09010001070101020901000609010031
:102570000C0901010D0901000E0901000F090100FC
:1025800010090100110901001209010013090100DD
:1025900014110100191101001A1101001B11010091
:1025A0000401000201070500030D010500010804F4
:1025B00002000202040300020304000002000704F8
:1025C00000030C03020405090301040508020304C7
:1025D00005030204040504060C000208060B0003B0
:1025E000070609000305060704050F060400030398
:1025F00004040002040405000205040600020604A7
:102600000804050C040A04050E010300000A011465
:1026100000000F011200000D011100000C0110005C
:102620000003070700030F00010000010000000085
:1026300000060A0003060608040510060500030448
:102640000601000300040904050D010400000B014C
:102650000F00000201000000040101000008010257
:10266000000009010600010902000405000201043E
:1026700005010202040502020A00000E020B00011D
:082680000B020C00010CFFFF2E
:0826880084FAFF7F010000004D
:1026900000100A40220000002917001A0000000064
:1026A00000000000000000000000000000000E40DC
:1026B000010000002917001A0000000000000000BF
:1026C000000000000000000000CB280CFFFFFFFF0F
:0826D000010000000000000001
:040000051A001A09BA
:00000001FF
