:020000041A00E0
:10000000008000105515001A7B01001A7D01001AAE
:100010007F01001A8101001A8301001A3063FF5327
:100020000000000000000000000000008501001A30
:100030008701001A000000008901001A2519001A22
:100040007901001A7901001A7901001A00000000F4
:100050007901001A7901001A7901001A7901001A50
:100060005119001A7901001A7901001A7901001A50
:100070007901001A7901001A7901001A7901001A30
:100080007901001A7901001A7901001A7901001A20
:100090007901001A7901001A7901001A7901001A10
:1000A0007901001A7901001A7901001A7901001A00
:1000B0007901001A7901001A7901001A7901001AF0
:1000C0007901001A7901001A7901001A7901001AE0
:1000D0007901001A7901001A7901001A7901001AD0
:1000E0007901001A7901001A7901001A7901001AC0
:1000F000000000007901001A7901001A7901001A44
:10010000000000007901001A7901001A7901001A33
:100110007901001AD421001A0000001048000000E4
:10012000D421001A0000081000000000D421001A99
:100130000000002000000000D421001A00800020F0
:1001400000000000D421001A00C0002000000000C0
:1001500048000010640000000000081000000000CB
:1001600000000020000000000080002000000000CF
:1001700000C0002000000000FEE7FEE7FEE7FEE70B
:10018000FEE7FEE7FEE7FEE7FEE7FEE70023934219
:100190000AD210B450F8044B41F8044B0433934294
:1001A000F8D35DF8044B7047704700238B4204D2AC
:1001B000002240F8042B0433F8E77047FFFFFFFFED
:1001C000FFFFFFFFFFFFFFFFFFFFFFFFFFFFFFFF3F
:1001D000FFFFFFFFFFFFFFFFFFFFFFFFFFFFFFFF2F
:1001E000FFFFFFFFFFFFFFFFFFFFFFFFFFFFFFFF1F
:1001F000FFFFFFFFFFFFFFFFFFFFFFFFFFFFFFFF0F
:10020000FFFFFFFFFFFFFFFFFFFFFFFFFFFFFFFFFE
:10021000FFFFFFFFFFFFFFFFFFFFFFFFFFFFFFFFEE
:10022000FFFFFFFFFFFFFFFFFFFFFFFFFFFFFFFFDE
:10023000FFFFFFFFFFFFFFFFFFFFFFFFFFFFFFFFCE
:10024000FFFFFFFFFFFFFFFFFFFFFFFFFFFFFFFFBE
:10025000FFFFFFFFFFFFFFFFFFFFFFFFFFFFFFFFAE
:10026000FFFFFFFFFFFFFFFFFFFFFFFFFFFFFFFF9E
:10027000FFFFFFFFFFFFFFFFFFFFFFFFFFFFFFFF8E
:10028000FFFFFFFFFFFFFFFFFFFFFFFFFFFFFFFF7E
:10029000FFFFFFFFFFFFFFFFFFFFFFFFFFFFFFFF6E
:1002A000FFFFFFFFFFFFFFFFFFFFFFFFFFFFFFFF5E
:1002B000FFFFFFFFFFFFFFFFFFFFFFFFFFFFFFFF4E
:1002C000FFFFFFFFFFFFFFFFFFFFFFFFFFFFFFFF3E
:1002D000FFFFFFFFFFFFFFFFFFFFFFFFFFFFFFFF2E
:1002E000FFFFFFFFFFFFFFFFFFFFFFFFFFFFFFFF1E
:1002F000FFFFFFFFFFFFFFFFFFFFFFFFFFFFFFFF0E
:100300000023037243728372C372037343730375D2
:1003100080F8243070470123037503690362704736
:100320000223037000234360704710B50446FFF7B3
:10033000F2FF032323700023636010BD04230370C6
:1003400000234360704705234370012343607047D7
:1003500000230370436070470023037043607047BD
:100360000023037043607047002343700123436000
:10037000704700238370022343607047002383701B
:100380000223436070470023837002234360704759
:100390000023C3700323436070470023C37003230B
:1003A0004360704708B5FFF7BBFF08BD08B5FFF70E
:1003B000F9FF08BD08B5FFF7C6FF08BD08B5FFF790
:1003C000F9FF08BD0020704738B50D4631B104462D
:1003D000FFF7F8FF10B9237B13B91D46284638BD37
:1003E0002046FFF7B9FF2046FFF79AFFF6E738B53A
:1003F0000D4641B10446FFF7E5FF20B9637B23B901
:10040000237B4BB91D46284638BD2046FFF7A8FF81
:100410002046FFF78AFFF6E72046FFF7A1FF2046B8
:10042000FFF77EFFEFE710B50446002101F013FB54
:1004300001221146204601F0D9FA00221146204639
:1004400001F0D4FA10BD10B50446FFF7ECFF062307
:10045000A3700223636010BD08B5FFF7F4FF08BD69
:1004600008B5FFF7F9FF08BD38B50D4619B10446C8
:10047000037A13B91D46284638BDFFF784FF20468E
:10048000FFF7E1FFF7E738B50D46002949D00446EC
:10049000037D13B1026A082A0DD013B1226A042A1F
:1004A00016D013B1226A022A1FD0CBB3236A012BC4
:1004B00028D0002535E0FFF757FF012363720022A3
:1004C0000521204601F092FA2046FFF73CFF28E084
:1004D0002046FFF749FF0122A2720521204601F0C4
:1004E00085FA2046FFF72FFF1BE02046FFF73CFF71
:1004F0000122E2720521204601F078FA2046FFF73A
:1005000022FF0EE02046FFF72FFF01232372002277
:100510000521204601F06AFA2046FFF714FF00E0AB
:100520001D46284638BD10B50446012101F093FA56
:1005300001220221204601F059FA00220121204621
:1005400001F054FA10BD10B50446FFF7ECFF072385
:10055000A3700223636010BD38B50D4619B104467F
:10056000037A13B91D46284638BDFFF702FF20461F
:10057000FFF7E9FFF7E710B50446022101F06BFA37
:1005800001220021204601F031FA002202212046FA
:1005900001F02CFA10BD10B50446FFF7ECFF08235C
:1005A000A3700223636010BD38B50D4619B104462F
:1005B000037A13B91D46284638BDFFF7DFFE2046F3
:1005C000FFF7E9FFF7E710B50446816901F045FA46
:1005D00001220321204601F009FA002204212046CD
:1005E00001F004FA10BD10B50446FFF7ECFF092333
:1005F000E3700323636010BD08B5FFF7F4FF08BD87
:1006000008B5FFF7F9FF08BD08B500F1240101F0B6
:1006100003FA08BD08B5002202704260FFF7F4FF3C
:1006200008BD38B50D4639B10446FFF7CBFE18B901
:1006300094F8243013B91D46284638BD2046FFF7EC
:10064000E9FF2046FFF77AFEF6E708B500236422AB
:1006500000F1240101F0D2F908BD10B50446FFF7FE
:10066000F4FF012323700023636010BD38B50D46ED
:1006700031B10446FFF7A6FE10B9637B13B91D46DE
:10068000284638BD2046FFF763FE2046FFF7E5FF0A
:10069000F6E710B50446C16901F0DEF90122042134
:1006A000204601F0A3F900220321204601F09EF923
:1006B00010BD10B50446FFF7ECFF0A23E3700323D7
:1006C000636010BD38B50D4669B10446437A2BB955
:1006D000837A53B9C37A8BB91D4604E0FFF758FEFD
:1006E0002046FFF7E6FF284638BDFFF751FEA36915
:1006F0000133A3612046FFF776FFF4E7FFF748FEDA
:10070000A369013BA3612046FFF76DFFEBE738B516
:100710000D4669B10446437A2BB9837A53B9C37A3B
:100720008BB91D4604E0FFF738FE2046FFF75BFF5C
:10073000284638BDFFF731FEE3690133E361204607
:10074000FFF7B7FFF4E7FFF728FEE369013BE3613A
:100750002046FFF7AEFFEBE738B50446002302E082
:100760000022E2540133032BFADD002565602046A8
:10077000FFF7C6FD6423A361E361256238BD10B5B0
:100780000446FFF713FE2046FFF718FE2046FFF74A
:1007900067FE2046FFF734FF10BDFFFF10B504468B
:1007A0000023436006E001212046FFF73AFF63681B
:1007B000013363606368032B47D8E35C013B092B7B
:1007C000F5D801A252F823F0A707001AF107001A82
:1007D000FB07001A0508001A0F08001A1908001A6A
:1007E0002308001A2D08001A3708001A4108001AB9
:1007F00001212046FFF73AFFD9E701212046FFF704
:10080000E3FDD4E701212046FFF7F1FDCFE7012109
:100810002046FFF738FECAE701212046FFF79CFE7D
:10082000C5E701212046FFF7BFFEC0E701212046B2
:10083000FFF71AFEBBE701212046FFF743FFB6E7AB
:1008400001212046FFF763FFB1E72046FFF758FD7F
:1008500010BD00BF2430884204DC0130884201D939
:1008600001230B707047012303737047016101235B
:100870004373704700231C2B12D810B4094A02EBB3
:10088000830112F823404A78488802EB4412064953
:1008900041F8220001331C2BF0D95DF8044B70475E
:1008A000704700BF741F001A0060084010B5174A57
:1008B000D2F8203123F4704343F41043C2F82031BE
:1008C000D2F8243123F4704343F41043C2F82431A6
:1008D00001220F49062000F073FD00244CB10B4BA0
:1008E0005A6822F00C025A605A6842F003025A60B9
:1008F00010BD084800EB840101238A78497810F87C
:10090000240000F00BFB0134E8E700BF0030044096
:1009100000CB280C701F001A08B5FFF7ABFFFFF7DC
:10092000C5FF08BD0022052A19D870B40C4911F87A
:10093000125001EB42014C780A4B05F5006653F862
:1009400026100120A040014343F8261003EB451375
:10095000002119550132052AE8D970BC704770474B
:10096000F41F001A00400F400023032B16D830B4A8
:100970000B4911F8132001EB43014D78094C02F5A6
:10098000006254F822100120A84021EA000144F836
:1009900022100133032BEBD930BC7047704700BFE6
:1009A000EC1F001A00400F400023082B16D830B46B
:1009B0000B4911F8132001EB43014D78094C02F566
:1009C000006254F822100120A84021EA000144F8F6
:1009D00022100133082BEBD930BC7047704700BFA1
:1009E0000020001A00400F4010B582B0084C694644
:1009F000204600F0A5FC074A6946204600F0C0FCEE
:100A000000226946204600F0D4FC02B010BD00BFB1
:100A100000300E40801A060010B50B4C204600F046
:100A20005FFB636823F004036360236823F0FF0324
:100A300043F0070323600549204600F032FB63685A
:100A400043F00203636010BD00500C40A08601001B
:100A500008B5002000F01EFC044B40F60802C3F865
:100A6000842C0349002000F029FC08BD00600840E8
:100A700040420F0010B5074C204600F063FB4FF4D6
:100A8000E131204600F088FB0323E3600123E365A6
:100A900010BD00BF00100C4008B5FFF7EBFF094880
:100AA00000F012F8FFF780FFFFF79EFFFFF7B4FF9B
:100AB000FFF7CEFFFFF736FFFFF756FF00F006F80F
:100AC00008BD00BF00400F407047FFFF08B5692018
:100AD00000F0A2FA014B186008BD00BF940000109E
:100AE000F0B40B6813F0800F02D023F040030B60CA
:100AF000074601253AE04B6903FB02F3B3FBF5F32C
:100B00001CE01C46B0EB040C27D4674506D98D6069
:100B1000771CCF600A618C61CB6167460132B2F508
:100B2000807F1DDC0C6814F0400FE4D0731C02FAC7
:100B300003FC4B6903FB0CF3B3FBF5F3DFF838C0A0
:100B40006345EBD9DFF834C0634509D814F0800F52
:100B5000D7D1741C23FA04F4D4E7CCF1000CD4E709
:100B60000136032E01DC0122D9E70135042D01DC19
:100B70000026F6E7F0BC7047FF5E4C0900D0121368
:100B8000F0B599B005460C465C22002101A801F0A1
:100B9000E7F9802300936369059323798DF8043086
:100BA00069462846FFF79CFF069BAB4227D0EB1A0D
:100BB0002ED41E46109B23F04003109363691593B7
:100BC00023798DF8443010A92846FFF789FF169B3A
:100BD000AB421FD0EB1A25D41F462B4B9D4223D985
:100BE0000E982D1A33D4AE423BDCBE4231DC6D464A
:100BF0000FCD0FC495E80F0084E80F0006E06D46A6
:100C00000FCD0FC495E80F0084E80F0019B0F0BDB8
:100C10005B42CEE710AD0FCD0FC495E80F0084E81E
:100C20000F00F3E75B42D7E74023089363690D9316
:100C300008A92846FFF754FF0E9BAB42D0D108AD60
:100C40000FCD0FC495E80F0084E80F00DEE76D427A
:100C5000C9E710AD0FCD0FC495E80F0084E80F0071
:100C6000D4E7AF4207DB08AD0FCD0FC495E80F0006
:100C700084E80F00CAE710AD0FCD0FC495E80F0050
:100C800084E80F00C2E700BF80778E0630B40546C7
:100C900000231C2000E001331C2817D103EB430282
:100CA0000B4901EB4202117981420FD003EB430261
:100CB000074C34F81220AA42EDD803EB430204EBB0
:100CC00042025288AA42E6D30846E5E730BC7047A4
:100CD0002020001A82B04FF47A7301930D4A936971
:100CE00023F0020192698A4201D00A4A916123F0FD
:100CF0000303094A1168094A914201D943F00403E8
:100D0000044A9361019B5A1E0192002BFAD102B052
:100D1000704700BF000005401420001AFF2C31016D
:100D20001230054B53F8200010F0010F02D1C0F330
:100D300004607047112070470000054000F1120266
:100D4000034B53F82220034B185C00EA92007047D3
:100D5000000005401820001A08B510280AD8DFE85E
:100D600000F0440B0D18210924272A2D09093034DD
:100D7000383C4000002008BD1E48FCE71E4BD3F85D
:100D80002C3103F00703042B01D01C48F3E70020AB
:100D9000F1E7194BD3F82C3103F00703042B27D0CC
:100DA0001648E8E7164B1868E5E7164B1868E2E7BF
:100DB000154B1868DFE7144B5868DCE700F068F85B
:100DC000D9E7002100F098F8D5E7012100F094F868
:100DD000D1E7022100F090F8CDE7032100F08CF874
:100DE000C9E7042100F088F8C5E74FF40040C2E7E6
:100DF0000648C0E7001BB7000030044040787D0182
:100E0000E81F001A1420001A4800001080F0FA02AF
:100E100038B505460C460879FFF79EFF6061194B0F
:100E20002B44194A934221D818B38023236000230E
:100E3000A360E360B5FBF0F32361144A954203D944
:100E400003FB00F0A84207D021462846FFF798FE92
:100E5000A3688BB1013BA360236983B1E2680AB147
:100E6000013AE260013B2361002038BD4FF0FF30C2
:100E7000FBE74FF0FF30F8E74FF0FF30F5E74FF0BA
:100E8000FF30F2E7103A6BFF1005940BFF5E4C0940
:100E900070B582B0164D6C6CC4F30360FFF75CFF55
:100EA0000646144A0192286C10F001001DD0C4F3CC
:100EB0000742C4F30131C4F30125C4F380100132A9
:100EC000013102AB1D4415F8043C14F0800F08D129
:100ED00038B95800B2FBF0F2B6FBF1F000FB02F0BB
:100EE00003E0B6FBF1F002FB00F002B070BD00BF02
:100EF000000005400102040838B50C460846FFF71B
:100F00000FFF05462046FFF719FF04462846FFF766
:100F100023FF0134B0FBF4F038BDFFFF30B400F123
:100F20001604A40004F1804404F5A02464681B287E
:100F300013D811291AD00E4D25400AB145F4006589
:100F40000BB145F0010545EA01611630800000F162
:100F5000804000F5A020416008E044F00104163014
:100F6000800000F1804000F5A020446030BC704754
:100F7000FEF7FFE01B280DD800F116039B0003F1DC
:100F8000804303F5A023586810F0010F04D1C0F38B
:100F900004607047112070471120704708B5FFF7B3
:100FA000E9FFFFF7D9FE08BD71B901210AB141F08F
:100FB0000401022B0AD0B0F5A17F0AD3A0F59170ED
:100FC000064B43F8301070470321EFE741F0200152
:100FD000F1E72030024B43F8301070470020054005
:100FE00000100540B0F5A17F09D3094AA0F5917022
:100FF00052F8303043F0010342F830307047054A70
:10100000203052F8303043F0010342F8303070475E
:10101000002005400010054010B50346B0F5A17F43
:1010200008D3A0F591720D4951F8324014F0010037
:1010300006D110BD00F12002094951F83240F5E710
:101040001846FFF723FEFFF7A9FF14F0E00F03D1C6
:101050000123B0FBF3F0ECE70223FAE700200540A0
:1010600000100540034B984201D083207047A52013
:10107000704700BF00500C40044B984202D040F231
:10108000022070474FF4F170704700BF00500C40D1
:10109000036823F47F43090289B2194301600261A6
:1010A000704770B506460C46FFF7E6FFFFF7B4FF42
:1010B00002224FF0FF33002100E02946A3420BD962
:1010C0004D1C01FB0223B0FBF3F39C42F6D2FF2D33
:1010D000F3D902320021F1E73046FFF7D9FF70BDA6
:1010E00010B50446FFF7BEFFFFF77CFF2046FFF771
:1010F000C3FFFFF777FF636823F00403636023688F
:1011000023F0FF0343F00703236002492046FFF763
:10111000C8FF10BDA0860100094B98420BD003F513
:101120008053984209D0A3F58023984201D0002033
:10113000704701207047022070470320704700BFAE
:1011400000100C4030B583B00446FFF7E5FF0123E3
:101150001A4619460E4D35F81000FFF725FF0723F4
:10116000A3600023E3656360E3602362E364636577
:101170002365084B9C4206D00323E3601023A3623F
:10118000019B03B030BD00232361A3690193F3E702
:101190009420001A002008402DE9F04F83B0019000
:1011A0008846FFF7B9FF324B33F81000FFF734FFE2
:1011B00006464FF0FF3701244FF0000BA246D946F8
:1011C0002AE042424B1C17E00AB31746AB46A24640
:1011D00099460135AC421ED933093007A4FB000102
:1011E00004FB0311621908FB02F2002300F018FD52
:1011F00002460B460028E4DB9742EAD3002BE8D0F6
:10120000190CE6D1022BDFD8002DDDD0E1E717461F
:10121000AB46A246994601341FB10F2C01D80025D8
:10122000D8E7B9F1000F1ED0019A1146D36843F0F8
:101230008003D3605FFA89F31360C9F30723536017
:10124000D36823F08003D3604FEA0A13DBB20BF0BC
:101250000F0213438B6233090AFB03F3DA4409FBE1
:101260000AF9B3FBF9F9484603B0BDE8F08F00BFB7
:101270008C20001A012909D1C0EBC000044B03EBFC
:1012800080000269137DDBB2042BFBD0704700BFE6
:101290000000001070B50446074EC500C0EBC00347
:1012A00006EB83039888FFF79DFE2C1B56F824302D
:1012B0006C229A6170BD00BF000000102DE9F04162
:1012C000044688460B4DC600C0EBC0039F0005EBEB
:1012D00083039888FFF7A0FEB0FBF8F1EB594A08AA
:1012E0001A61341B55F824301869091A5961BDE890
:1012F000F08100BF00000010034B984201D0032092
:1013000070470420704700BF00400E4070B50D4686
:1013100014461E46FFF7F0FFFFF77EFE55B104FBB3
:1013200006F404EB40006400B0FBF4F0C0B20138F6
:10133000C0B270BD04EB840304EB4304F1E7FFFF8C
:1013400038B505460C46FFF7D7FF01231A46194664
:10135000FFF72AFE0021E960084A226021716171CD
:101360000B232846FFF7D2FF000240F40010237938
:101370005B0403F4602303432B6038BD801A06002E
:1013800070B505460E46046824F46F2424F4706496
:101390000A600B79C3F10B03DBB24979FFF7B6FFA3
:1013A00044EA002433795B0403F4602323432B6075
:1013B00070BD08B50A710A68FFF7E2FF08BDFFFFBC
:1013C00070B58AB005460E4614464CF25033099368
:1013D000062818D00023012229460420FFF79EFD8D
:1013E0004A4A536C43F0010353648DF8085001A935
:1013F0003046FFF70DFD464B9E4216D9019B13F078
:10140000400F03D0FEE7FFF765FCE3E713F0800F22
:1014100005D023F0800301930025012607E0049BFB
:10142000013304930125002601E000252E469DF896
:101430000820019B43EA0263059A43EA0243039AA8
:1014400043EA0233049A43EA022343F400632F4A37
:1014500053642E4B1B6C13F0010FFAD000230122B2
:1014600009210420FFF75AFD06B34CF250330993CB
:10147000099B5A1E0992002BFAD1019B43F080036D
:1014800001939DF8082043EA0263059A43EA024368
:10149000039A43EA0233049A43EA022343F40063C3
:1014A0001A4A5364002C2ED10AB070BD002DF9D019
:1014B0004CF250330993099B5A1E0992002BFAD122
:1014C000049B5A1E04929DF80810019B43EA016395
:1014D000059943EA0143039943EA013343EA0223AE
:1014E00043F40063094A5364DCE70A4800EB8401D3
:1014F000CB788A78497810F82400FFF70FFD013483
:10150000112CF2D9D0E70024FAE700BF0000054013
:1015100080778E069C20001A08B50B4A0B4B9A6008
:1015200003F50C731B6903F47F63202B04D0FFF7D2
:10153000F3F9FFF7B1FA08BD044AD2F8883043F452
:101540007003C2F88830F2E70000001A00ED00E0F6
:101550007047FFFF10B572B6194B1A4A1A60043370
:10156000194A1A60002305E0184A4FF0FF3142F88B
:1015700023100133072BF7D962B6154B07E003F1AF
:101580000C049A6859681868FEF700FE2346114A51
:101590009342F4D306E01C46596854F8080BFEF752
:1015A00004FE23460C4A9342F5D3FFF7B5FF00F043
:1015B000B3FCFFF7CDFF00F051FA30BFFDE700BFED
:1015C000003105400010DF10FFF7DF0180E200E08E
:1015D0001401001A5001001A7801001A7047704770
:1015E000044B1860044A136843F0010313600120A0
:1015F000704700BF38000010001000E030B40B4D01
:1016000000EB80002C182856087094F90110117016
:1016100094F902201A7094F90320029B1A7094F92D
:101620000420039B1A7030BC704700BFE420001AEE
:1016300070B584B00C4600238DF80F308DF80E3055
:101640008DF80D308DF80C308DF80B300DF10B034B
:10165000019303AB00930DF10D030DF10E020DF19B
:101660000F01FFF7CBFF052C00F2A580DFE804F0A7
:101670000981274563035148FFF726FA012004B08A
:1016800070BD9DF80F109DF80E309DF80D2042F0B2
:10169000D00203EB41134A4941F823209DF80C3056
:1016A0009DF90B20012000FA02F1444C03F5006380
:1016B00054F8232022EA010244F82320DFE79DF8B2
:1016C0000F109DF80E309DF80D2042F0C00203EB84
:1016D00041133B4941F823209DF80C309DF90B2024
:1016E000012000FA02F1354C03F5006354F8232081
:1016F00022EA010244F82320C1E79DF80F109DF86B
:101700000E309DF80D2042F0D80203EB41132C4916
:1017100041F823209DF80C309DF90B20012000FAA0
:1017200002F1264C03F5006354F8232022EA01025B
:1017300044F82320A3E79DF80F109DF80E309DF884
:101740000D2042F0C80203EB41131D4941F823204C
:101750009DF80C309DF90B20012000FA02F1174C86
:1017600003F5006354F8232022EA010244F8232001
:1017700085E79DF80F109DF80E309DF80D2042F082
:10178000D00203EB41130E4941F823209DF80C00D1
:101790009DF90B1001228A40084B00F5006553F8B3
:1017A0002560324343F82520C9B203EB40130022E1
:1017B0005A54204663E7002061E700BF00400F4015
:1017C0000060084010B584B00C4600238DF80F303F
:1017D0008DF80E308DF80D308DF80C308DF80B3003
:1017E0000DF10B03019303AB00930DF10D030DF10C
:1017F0000E020DF10F01FFF701FF9DF80C309DF86F
:101800000B20003C18BF01245B0103F1402303F5CA
:1018100070239C54012004B010BD00B585B0002396
:101820008DF80F308DF80E308DF80D308DF80C30AE
:101830008DF80B300DF10B03019303AB00930DF109
:101840000D030DF10E020DF10F01FFF7D7FE9DF90B
:101850000C309DF80B205B0103F1402303F570234E
:10186000985C003818BF012005B05DF804FBFFFF4D
:1018700030B1054A1060012021B1044B1960704756
:101880000020F9E7002070476000001050000010B1
:1018900018B1044B07221A607047024B00221A60ED
:1018A000704700BF10E000E038B502460B4652EA30
:1018B000030128D010F1FF3443F1FF35002D08BF9C
:1018C000322C25D21349C1E9002313490C68A4FB2B
:1018D000000104FB03114FF47A72002300F0A0F919
:1018E0000138B0F1807F09D20C4B58600C4AE021DE
:1018F00082F8231000229A6007221A600120FFF765
:10190000C7FF012005E00020FFF7C2FF002000E034
:10191000002038BD400000109400001010E000E0EE
:1019200000ED00E008B5074A13685168013341F142
:10193000000113605160044B1B6813B1034A106827
:10194000984708BD580000106000001050000010BB
:1019500008B5044B1B681B68DB68034A106898478E
:1019600008BD00BF980000106400001008B5FFF724
:10197000ADF81A4B1868FFF733FE01200021FFF77E
:1019800093FF05210020FFF753FE00212420FFF7DD
:101990004FFE00212520FFF74BFE00212620FFF7F8
:1019A00047FE00212720FFF743FE01212820FFF7F3
:1019B0003FFE01212920FFF73BFE01212A20FFF7EE
:1019C00037FE01212B20FFF733FE01212C20FFF7EA
:1019D0002FFE01212D20FFF72BFE08BD94000010E3
:1019E000014B01221A7070476800001008B5C8B298
:1019F00028301146C0B2FFF7E5FE08BD00B583B040
:101A0000009313460A460121024800F08BF803B008
:101A10005DF804FB9C00001008B50A46012102484D
:101A200000F09AF808BD00BF9C00001038B50024F3
:101A3000254600E00134032C0BD8E0B22430C0B2BC
:101A4000FFF7EBFE0028F5D10123A3401D43EDB2C3
:101A5000F0E7284638BD70477047704770B5FFF70C
:101A600085FF01200021FFF71FFF00212048FFF71D
:101A7000FFFE01211F4800F043F81F4C2046FEF7EF
:101A80006BFE2046FEF77BFE1AE01A482301C2587F
:101A9000012100F07CF808B901341DE0154D260144
:101AA000A9591548FEF7D6FEAA590121284600F08B
:101AB00082F8F1E71048FEF7D6FE0F48FEF76EFEFB
:101AC00030BF0E4B1B78002BFAD000240B4B1C7040
:101AD0000121084800F082F8002CD6D0FFF7A6FFBD
:101AE00001460028E6D00448FEF7C0FEE5E700BF47
:101AF000E119001A9C0000106C0000106800001032
:101B000030B400248C420BD2250100EB04120023D8
:101B10004351536093601373537393730134F1E72C
:101B200030BC704770B400248C4212D2250100EB07
:101B3000041645590DB10134F6E77360B3603260A5
:101B40009DF80C303373012373730023B373104675
:101B500000E0002070BC704700238B4215D230B4E7
:101B60001C0100EB03150459944204D001338B424D
:101B7000F6D3002007E000232B606B60AB602B7373
:101B80006B73AB73104630BC70470020704770B465
:101B90000546002300E001338B4209D21C0105EB0E
:101BA000031628599042F6D1B07B0028F3D000E00C
:101BB000002070BC704700238B420ED230B41C0151
:101BC00000EB03150459944203D001338B42F6D342
:101BD00001E00023AB7330BC7047704700238B4299
:101BE0001DD210B406E00024547301249473013311
:101BF0008B4211D200EB0312547B002CF7D0946877
:101C00000CB1013C94609468002CF0D1147B002C42
:101C1000E9D054689460E8E75DF8044B704770477A
:101C200053B94AB9002908BF00281CBF4FF0FF3143
:101C30004FF0FF3000F06EB9ADF1080C6DE904CE45
:101C400000F006F8DDF804E0DDE9022304B0704797
:101C50002DE9F047089D04468C46002B40F0838018
:101C60008A42174647D9B2FA82F242B1C2F1200045
:101C700024FA00F09140974040EA010C94404FEA6A
:101C80001748230CBCFBF8F61FFA87FE08FB16C1A9
:101C900043EA014306FB0EF1994209D9FB1806F10C
:101CA000FF3080F01981994240F21681023E3B4498
:101CB0005B1AA4B2B3FBF8F008FB103344EA034408
:101CC00000FB0EFEA64509D93C1900F1FF3380F058
:101CD0000581A64540F2028102383C4440EA0640B4
:101CE000A4EB0E0400261DB1D4400023C5E9004337
:101CF0003146BDE8F08702B9FFDEB2FA82F2002A6F
:101D000050D1CB1B4FEA174E1FFA87F80126B3FBC1
:101D1000FEFC210C0EFB1C3341EA034108FB0CF3D3
:101D20008B4207D979180CF1FF3002D28B4200F2B6
:101D3000E9808446C91AA3B2B1FBFEF00EFB101174
:101D400043EA014408FB00F8A04507D93C1900F11B
:101D5000FF3302D2A04500F2D9801846A4EB080454
:101D600040EA0C40BFE78B4209D9002D00F0B1805A
:101D70000026C5E9000130463146BDE8F087B3FAD8
:101D800083F6002E4AD18B4202D3824200F2B88001
:101D9000841A61EB030101208C46002DA8D0C5E90F
:101DA000004CA5E7C2F1200320FA03F6974001FAA0
:101DB00002F04FEA174ED9403043030CB1FBFEF658
:101DC0001FFA87F80EFB161143EA014306FB08F1E0
:101DD000994204FA02F409D9FB1806F1FF3C80F09D
:101DE0008D80994240F28A80023E3B445B1A81B268
:101DF000B3FBFEF00EFB103341EA034100FB08F396
:101E00008B4207D9791800F1FF3C73D28B4271D90C
:101E100002383944CB1A40EA064678E7C6F1200C6E
:101E200003FA06F422FA0CF31C4320FA0CF701FA29
:101E300006F34FEA144E21FA0CF11F433B0CB1FBA1
:101E4000FEF91FFA84F80EFB191143EA014109FB60
:101E500008FA8A4502FA06F200FA06F308D9611870
:101E600009F1FF3048D28A4546D9A9F10209214437
:101E7000A1EB0A01BFB2B1FBFEF00EFB101147EA65
:101E8000014700FB08F8B84507D9E71900F1FF3111
:101E90002ED2B8452CD90238274440EA0940A7EB96
:101EA0000807A0FB02894F45C64649461AD317D0FA
:101EB0005DB1B3EB0E0267EB010707FA0CFCF240D1
:101EC0004CEA0202F740C5E9002700263146BDE88A
:101ED000F0872E4628460BE70646E9E61846FDE65B
:101EE0004345E5D2B8EB020E69EB04010138DFE7A8
:101EF0000846D2E760468DE78146B9E7664675E752
:101F000030464AE7ACF1020C394413E702383C444E
:101F100024E700BF704700BF70B50D4D0D4C641B2A
:101F2000A4100026A64209D10B4D0C4CFFF757FB1D
:101F3000641BA4100026A64205D170BD55F8043BD1
:101F400098470136EEE755F8043B98470136F2E72B
:101F5000CC21001ACC21001ACC21001ACC21001A65
:101F600002440346934200D1704703F8011BF9E78E
:101F7000010F01010200440002014400020244007A
:101F8000020A4000020B4000020C40000100500019
:101F900001015000010250000106500006015000EE
:101FA00006045000060550000607540006085400B9
:101FB00006095000060A5000060B5000060C50009F
:101FC0000F04F0000103D5000104D500070116003D
:101FD0000702560002035200020452000905520093
:101FE0000906570006025700000000000004000820
:101FF00000090109050005010502000E010B010C95
:10200000030003030304050F05100305030603077C
:102010000208FFFF001BB700030F0F0FFF00FFFFB9
:10202000000005000A0020002400090040004000D4
:1020300005006000A6000400C000C3000200E0002C
:10204000E000010000010001030020012001060062
:10205000400140010C00420142011900620162018D
:102060001300820182011200A201A2011100C2012B
:10207000C2011000E201E2010F00020202020E00A2
:10208000220222020D00230223021C00C201A2012F
:102090008201620181008200A100A2000001010012
:1020A000090901000A0901000107010102090100F3
:1020B000060901000C0901010D0901000E090100CA
:1020C0000F090100100901001109010012090100A6
:1020D0001309010014110100191101001A11010066
:1020E0001B1101000401000201070500030D010599
:1020F00000010804020002020403000203040000BD
:102100000200070400030C0302040509030104058F
:102110000802030405030204040504060C00020877
:10212000060B0003070609000305060704050F0652
:10213000040003030404000204040500020504066D
:10214000000206040804050C040A04050E0103003D
:10215000000A011400000F011200000D011100001F
:102160000C0110000003070700030F00010000012D
:102170000000000000060A00030606080405100619
:10218000050003040601000300040904050D010411
:1021900000000B010F00000201000000040101001B
:1021A00000080102000009010600010902000405FF
:1021B0000002010405010202040502020A00000EE9
:0C21C000020B00010B020C00010CFFFFE1
:0821CC0084FAFF7F010000000E
:1021D40000100A40220000007512001A00000000DE
:1021E40000000000000000000000000000000E409D
:1021F400010000007512001A000000000000000039
:10220400000000000000000000CB280CFFFFFFFFCF
:082214000100000000000000C1
:040000051A00155573
:00000001FF
