:020000041A00E0
:10000000008000106D11001A7B01001A7D01001A9A
:100010007F01001A8101001A8301001A1867FF533B
:100020000000000000000000000000008501001A30
:100030008701001A000000008901001A3912001A15
:100040007901001A7901001A7901001A00000000F4
:100050007901001A7901001A7901001A7901001A50
:100060007901001A7901001A7901001A7901001A40
:100070007901001A7901001A7901001A7901001A30
:100080007901001A7901001A7901001A7901001A20
:100090007901001A7901001A7901001A7901001A10
:1000A0007901001A7901001A7901001A7901001A00
:1000B0007901001A7901001A7901001A7901001AF0
:1000C0007901001A7901001A7901001A7901001AE0
:1000D0007901001A7901001A7901001A7901001AD0
:1000E0007901001A7901001A7901001A7901001AC0
:1000F000000000007901001A7901001A7901001A44
:10010000000000007901001A7901001A7901001A33
:100110007901001AE018001A0000001038000000F1
:10012000E018001A0000081000000000E018001A93
:100130000000002000000000E018001A00800020ED
:1001400000000000E018001A00C0002000000000BD
:10015000380000103C000000000008100000000003
:1001600000000020000000000080002000000000CF
:1001700000C0002000000000FEE7FEE7FEE7FEE70B
:10018000FEE7FEE7FEE7FEE7FEE7FEE70023934219
:100190000AD210B450F8044B41F8044B0433934294
:1001A000F8D35DF8044B7047704700238B4204D2AC
:1001B000002240F8042B0433F8E77047FFFFFFFFED
:1001C000FFFFFFFFFFFFFFFFFFFFFFFFFFFFFFFF3F
:1001D000FFFFFFFFFFFFFFFFFFFFFFFFFFFFFFFF2F
:1001E000FFFFFFFFFFFFFFFFFFFFFFFFFFFFFFFF1F
:1001F000FFFFFFFFFFFFFFFFFFFFFFFFFFFFFFFF0F
:10020000FFFFFFFFFFFFFFFFFFFFFFFFFFFFFFFFFE
:10021000FFFFFFFFFFFFFFFFFFFFFFFFFFFFFFFFEE
:10022000FFFFFFFFFFFFFFFFFFFFFFFFFFFFFFFFDE
:10023000FFFFFFFFFFFFFFFFFFFFFFFFFFFFFFFFCE
:10024000FFFFFFFFFFFFFFFFFFFFFFFFFFFFFFFFBE
:10025000FFFFFFFFFFFFFFFFFFFFFFFFFFFFFFFFAE
:10026000FFFFFFFFFFFFFFFFFFFFFFFFFFFFFFFF9E
:10027000FFFFFFFFFFFFFFFFFFFFFFFFFFFFFFFF8E
:10028000FFFFFFFFFFFFFFFFFFFFFFFFFFFFFFFF7E
:10029000FFFFFFFFFFFFFFFFFFFFFFFFFFFFFFFF6E
:1002A000FFFFFFFFFFFFFFFFFFFFFFFFFFFFFFFF5E
:1002B000FFFFFFFFFFFFFFFFFFFFFFFFFFFFFFFF4E
:1002C000FFFFFFFFFFFFFFFFFFFFFFFFFFFFFFFF3E
:1002D000FFFFFFFFFFFFFFFFFFFFFFFFFFFFFFFF2E
:1002E000FFFFFFFFFFFFFFFFFFFFFFFFFFFFFFFF1E
:1002F000FFFFFFFFFFFFFFFFFFFFFFFFFFFFFFFF0E
:1003000000230372437270470020704710B5044603
:100310000023FA2200F1080100F076FF00220521F7
:10032000204600F069FF10BD10B50446FFF7EEFF50
:10033000012323700023636010BD08B5FFF7F4FFAD
:1003400008BD08B5FFF7F9FF08BD10B50446002346
:100350004FF4FA7200F1090100F056FF0122052165
:10036000204600F049FF10BD10B50446FFF7EDFF31
:10037000022323700023636010BD08B500F108015B
:1003800000F050FF08BD08B5002202704260FFF780
:10039000F4FF08BD38B50D4631B10446FFF7B4FF90
:1003A00010B9237A13B91D46284638BD2046FFF7F9
:1003B000EAFF2046FFF7D8FFF6E708B500F109018C
:1003C00000F030FF08BD08B5002202704260FFF760
:1003D000F4FF08BD38B50D4631B10446FFF794FF70
:1003E00010B9637A13B91D46284638BD2046FFF779
:1003F000EAFF2046FFF798FFF6E708B50023002B39
:1004000004DD00234360FFF77BFF08BD0022C254D8
:100410000133F4E708B5FFF794FF08BD10B50446B3
:100420000023436006E001212046FFF7B3FF636825
:100430000133636063684BB9E35C012BF3D0022B9B
:10044000F5D101212046FFF7C5FFF0E72046FFF771
:1004500057FF10BD0830884204DC0230884201D9C1
:1004600001230B707047FFFF00231C2B12D810B420
:10047000094A02EB830112F823404A78488802EBCC
:100480004412064941F8220001331C2BF0D95DF8D3
:10049000044B7047704700BF6817001A006008409F
:1004A00010B5174AD2F8203123F4704343F41043B7
:1004B000C2F82031D2F8243123F4704343F41043BE
:1004C000C2F8243101220F49062000F085FD0024E6
:1004D0004CB10B4B5A6822F00C025A605A6842F039
:1004E00003025A6010BD084800EB840101238A789A
:1004F000497810F8240000F01DFB0134E8E700BF44
:100500000030044000CB280C6417001A08B5FFF730
:10051000ABFFFFF7C5FF08BD0022052A19D870B44C
:100520000C4911F8125001EB42014C780A4B05F5C9
:10053000006653F826100120A040014343F826101E
:1005400003EB4513002119550132052AE8D970BC87
:1005500070477047E817001A00400F400023032B34
:1005600016D830B40B4911F8132001EB43014D7834
:10057000094C02F5006254F822100120A84021EA3B
:10058000000144F822100133032BEBD930BC704733
:10059000704700BFE017001A00400F400023082BEF
:1005A00016D830B40B4911F8132001EB43014D78F4
:1005B000094C02F5006254F822100120A84021EAFB
:1005C000000144F822100133082BEBD930BC7047EE
:1005D000704700BFF417001A00400F4010B582B0FA
:1005E000084C6946204600F0B7FC074A6946204699
:1005F00000F0D2FC00226946204600F0E6FC02B082
:1006000010BD00BF00300E40801A060010B50B4C24
:10061000204600F071FB636823F0040363602368E5
:1006200023F0FF0343F0070323600549204600F051
:1006300044FB636843F00203636010BD00500C404C
:10064000A086010008B5002000F030FC044B40F605
:100650000802C3F8842C0349002000F03BFC08BDCD
:100660000060084040420F0010B5074C204600F0E3
:1006700075FB4FF4E131204600F09AFB0323E36061
:100680000123E36510BD00BF00100C4005280BD806
:10069000064A12F8103002EB400042785B0103F189
:1006A000402303F570239954704700BFE817001AE0
:1006B00008B5FFF7D9FF094800F012F8FFF76EFF01
:1006C000FFF78CFFFFF7A2FFFFF7BCFFFFF724FF48
:1006D000FFF744FF00F006F808BD00BF00400F40E0
:1006E0007047FFFF08B5692000F0A2FA014B1860BF
:1006F00008BD00BF50000010F0B40B6813F0800F6D
:1007000002D023F040030B60074601253AE04B6915
:1007100003FB02F3B3FBF5F31CE01C46B0EB040C47
:1007200027D4674506D98D60771CCF600A618C613C
:10073000CB6167460132B2F5807F1DDC0C6814F096
:10074000400FE4D0731C02FA03FC4B6903FB0CF36B
:10075000B3FBF5F3DFF838C06345EBD9DFF834C0FD
:10076000634509D814F0800FD7D1741C23FA04F420
:10077000D4E7CCF1000CD4E70136032E01DC0122D2
:10078000D9E70135042D01DC0026F6E7F0BC7047FF
:10079000FF5E4C0900D01213F0B599B005460C4627
:1007A0005C22002101A800F0D5FF8023009363693B
:1007B000059323798DF8043069462846FFF79CFF9E
:1007C000069BAB4227D0EB1A2ED41E46109B23F07B
:1007D000400310936369159323798DF8443010A971
:1007E0002846FFF789FF169BAB421FD0EB1A25D492
:1007F0001F462B4B9D4223D90E982D1A33D4AE425F
:100800003BDCBE4231DC6D460FCD0FC495E80F00D6
:1008100084E80F0006E06D460FCD0FC495E80F0089
:1008200084E80F0019B0F0BD5B42CEE710AD0FCDEC
:100830000FC495E80F0084E80F00F3E75B42D7E7A9
:100840004023089363690D9308A92846FFF754FFD6
:100850000E9BAB42D0D108AD0FCD0FC495E80F0071
:1008600084E80F00DEE76D42C9E710AD0FCD0FC47D
:1008700095E80F0084E80F00D4E7AF4207DB08AD2E
:100880000FCD0FC495E80F0084E80F00CAE710AD44
:100890000FCD0FC495E80F0084E80F00C2E700BF3A
:1008A00080778E0630B4054600231C2000E001331B
:1008B0001C2817D103EB43020B4901EB42021179CB
:1008C00081420FD003EB4302074C34F81220AA42B6
:1008D000EDD803EB430204EB42025288AA42E6D36E
:1008E0000846E5E730BC70471418001A82B04FF490
:1008F0007A7301930D4A936923F0020192698A4247
:1009000001D00A4A916123F00303094A1168094A98
:10091000914201D943F00403044A9361019B5A1E9A
:100920000192002BFAD102B0704700BF00000540D1
:100930000818001AFF2C31011230054B53F8200023
:1009400010F0010F02D1C0F304607047112070470E
:100950000000054000F11202034B53F82220034B24
:10096000185C00EA92007047000005400C18001A5D
:1009700008B510280AD8DFE800F0440B0D1821094B
:1009800024272A2D09093034383C4000002008BDB6
:100990001E48FCE71E4BD3F82C3103F00703042B51
:1009A00001D01C48F3E70020F1E7194BD3F82C31B4
:1009B00003F00703042B27D01648E8E7164B186806
:1009C000E5E7164B1868E2E7154B1868DFE7144BAC
:1009D0005868DCE700F068F8D9E7002100F098F8E3
:1009E000D5E7012100F094F8D1E7022100F090F85A
:1009F000CDE7032100F08CF8C9E7042100F088F866
:100A0000C5E74FF40040C2E70648C0E7001BB70047
:100A10000030044040787D01DC17001A0818001AE5
:100A20003800001080F0FA0238B505460C46087907
:100A3000FFF79EFF6061194B2B44194A934221D85E
:100A400018B3802323600023A360E360B5FBF0F3B9
:100A50002361144A954203D903FB00F0A84207D052
:100A600021462846FFF798FEA3688BB1013BA3609F
:100A7000236983B1E2680AB1013AE260013B236174
:100A8000002038BD4FF0FF30FBE74FF0FF30F8E7B4
:100A90004FF0FF30F5E74FF0FF30F2E7103A6BFF11
:100AA0001005940BFF5E4C0970B582B0164D6C6C4E
:100AB000C4F30360FFF75CFF0646144A0192286CFA
:100AC00010F001001DD0C4F30742C4F30131C4F398
:100AD0000125C4F380100132013102AB1D4415F829
:100AE000043C14F0800F08D138B95800B2FBF0F282
:100AF000B6FBF1F000FB02F003E0B6FBF1F002FB05
:100B000000F002B070BD00BF000005400102040803
:100B100038B50C460846FFF70FFF05462046FFF79D
:100B200019FF04462846FFF723FF0134B0FBF4F019
:100B300038BDFFFF30B400F11604A40004F1804476
:100B400004F5A02464681B2813D811291AD00E4D6F
:100B500025400AB145F400650BB145F0010545EAB1
:100B600001611630800000F1804000F5A020416056
:100B700008E044F001041630800000F1804000F5E8
:100B8000A020446030BC7047FEF7FFE01B280DD862
:100B900000F116039B0003F1804303F5A02358687E
:100BA00010F0010F04D1C0F30460704711207047AA
:100BB0001120704708B5FFF7E9FFFFF7D9FE08BD20
:100BC00071B901210AB141F00401022B0AD0B0F53C
:100BD000A17F0AD3A0F59170064B43F830107047FF
:100BE0000321EFE741F02001F1E72030024B43F809
:100BF000301070470020054000100540B0F5A17F7F
:100C000009D3094AA0F5917052F8303043F001033E
:100C100042F830307047054A203052F8303043F007
:100C2000010342F8303070470020054000100540B5
:100C300010B50346B0F5A17F08D3A0F591720D4918
:100C400051F8324014F0010006D110BD00F120022D
:100C5000094951F83240F5E71846FFF723FEFFF740
:100C6000A9FF14F0E00F03D10123B0FBF3F0ECE790
:100C70000223FAE70020054000100540034B98428C
:100C800001D083207047A520704700BF00500C4062
:100C9000044B984202D040F2022070474FF4F170AA
:100CA000704700BF00500C40036823F47F430902E3
:100CB00089B2194301600261704770B506460C465F
:100CC000FFF7E6FFFFF7B4FF02224FF0FF330021EA
:100CD00000E02946A3420BD94D1C01FB0223B0FBC7
:100CE000F3F39C42F6D2FF2DF3D902320021F1E753
:100CF0003046FFF7D9FF70BD10B50446FFF7BEFFC1
:100D0000FFF77CFF2046FFF7C3FFFFF777FF63681D
:100D100023F004036360236823F0FF0343F0070319
:100D2000236002492046FFF7C8FF10BDA0860100DE
:100D3000094B98420BD003F58053984209D0A3F594
:100D40008023984201D00020704701207047022084
:100D500070470320704700BF00100C4030B583B0CF
:100D60000446FFF7E5FF01231A4619460E4D35F8F4
:100D70001000FFF725FF0723A3600023E3656360EE
:100D8000E3602362E36463652365084B9C4206D0FD
:100D90000323E3601023A362019B03B030BD002353
:100DA0002361A3690193F3E78818001A0020084023
:100DB0002DE9F04F83B001908846FFF7B9FF324B21
:100DC00033F81000FFF734FF06464FF0FF370124D9
:100DD0004FF0000BA246D9462AE042424B1C17E0D6
:100DE0000AB31746AB46A24699460135AC421ED916
:100DF00033093007A4FB000104FB0311621908FB4F
:100E000002F2002300F006FB02460B460028E4DB5A
:100E10009742EAD3002BE8D0190CE6D1022BDFD899
:100E2000002DDDD0E1E71746AB46A24699460134D6
:100E30001FB10F2C01D80025D8E7B9F1000F1ED043
:100E4000019A1146D36843F08003D3605FFA89F3B7
:100E50001360C9F307235360D36823F08003D36082
:100E60004FEA0A13DBB20BF00F0213438B62330914
:100E70000AFB03F3DA4409FB0AF9B3FBF9F9484624
:100E800003B0BDE8F08F00BF8018001A012909D116
:100E9000C0EBC000044B03EB80000269137DDBB2A2
:100EA000042BFBD0704700BF0000001070B5044653
:100EB000074EC500C0EBC00306EB83039888FFF71D
:100EC0009DFE2C1B56F824306C229A6170BD00BF29
:100ED000000000102DE9F041044688460B4DC60085
:100EE000C0EBC0039F0005EB83039888FFF7A0FECB
:100EF000B0FBF8F1EB594A081A61341B55F824305D
:100F00001869091A5961BDE8F08100BF000000109E
:100F1000034B984201D0032070470420704700BF64
:100F200000400E4070B50D4614461E46FFF7F0FF18
:100F3000FFF77EFE55B104FB06F404EB40006400AD
:100F4000B0FBF4F0C0B20138C0B270BD04EB840352
:100F500004EB4304F1E7FFFF38B505460C46FFF705
:100F6000D7FF01231A461946FFF72AFE0021E96040
:100F7000084A2260217161710B232846FFF7D2FFD6
:100F8000000240F4001023795B0403F46023034360
:100F90002B6038BD801A060070B505460E46046801
:100FA00024F46F2424F470640A600B79C3F10B03FA
:100FB000DBB24979FFF7B6FF44EA002433795B04DA
:100FC00003F4602323432B6070BD08B50A710A68DF
:100FD000FFF7E2FF08BDFFFF70B58AB005460E4679
:100FE00014464CF250330993062818D000230122EE
:100FF00029460420FFF79EFD4A4A536C43F0010343
:1010000053648DF8085001A93046FFF70DFD464B9B
:101010009E4216D9019B13F0400F03D0FEE7FFF765
:1010200065FCE3E713F0800F05D023F08003019304
:101030000025012607E0049B0133049301250026C7
:1010400001E000252E469DF80820019B43EA02633B
:10105000059A43EA0243039A43EA0233049A43EAB5
:10106000022343F400632F4A53642E4B1B6C13F08E
:10107000010FFAD00023012209210420FFF75AFDB5
:1010800006B34CF250330993099B5A1E0992002B68
:10109000FAD1019B43F0800301939DF8082043EAB5
:1010A0000263059A43EA0243039A43EA0233049A2D
:1010B00043EA022343F400631A4A5364002C2ED1FE
:1010C0000AB070BD002DF9D04CF250330993099B42
:1010D0005A1E0992002BFAD1049B5A1E04929DF8C5
:1010E0000810019B43EA0163059943EA0143039910
:1010F00043EA013343EA022343F40063094A536499
:10110000DCE70A4800EB8401CB788A78497810F84C
:101110002400FFF70FFD0134112CF2D9D0E7002491
:10112000FAE700BF0000054080778E069018001A8D
:1011300008B50B4A0B4B9A6003F50C731B6903F45B
:101140007F63202B04D0FFF7E1F9FFF7B1FA08BD68
:10115000044AD2F8883043F47003C2F88830F2E7CA
:101160000000001A00ED00E07047FFFF10B572B6F6
:10117000194B1A4A1A600433194A1A60002305E011
:10118000184A4FF0FF3142F823100133072BF7D9EB
:1011900062B6154B07E003F10C049A6859681868A9
:1011A000FEF7F4FF2346114A9342F4D306E01C46AF
:1011B000596854F8080BFEF7F8FF23460C4A93428F
:1011C000F5D3FFF7B5FF00F0A1FAFFF7CDFF00F070
:1011D00039F830BFFDE700BF003105400010DF10D7
:1011E000FFF7DF0180E200E01401001A5001001A4D
:1011F0007801001A7047704708B508461146C0B21A
:10120000FFF744FA08BDFFFF00B583B00093134613
:101210000A460221024800F07FF803B05DF804FBA3
:101220005400001008B50A460221024800F08EF86A
:1012300008BD00BF54000010014B01221A70704716
:101240004000001070B5FFF733FA234B1B68234AA8
:10125000A2FB03239B09013BB3F1807F09D2204A03
:101260005360204BE02183F8231000239360072371
:10127000136002211C4800F03DF81C4C2046FFF78B
:10128000BCF82046FFF7C6F819E0174D2601A9590A
:101290001648FFF7DFF8AA590221284600F085F822
:1012A0000134012C08D810482301C258022100F053
:1012B00068F80028F4D0E8E70C48FFF7AFF830BF33
:1012C0000B4B1B78002BFAD00024094B1C70022119
:1012D000054800F07DF8E4E750000010D34D62109F
:1012E00010E000E000ED00E05400001044000010A9
:1012F0004000001030B400248C420BD2250100EBDA
:101300000412002343515360936013735373937318
:101310000134F1E730BC704770B400248C4212D223
:10132000250100EB041645590DB10134F6E7736051
:10133000B36032609DF80C30337301237373002364
:10134000B373104600E0002070BC704700238B424E
:1013500015D230B41C0100EB03150459944204D09B
:1013600001338B42F6D3002007E000232B606B6033
:10137000AB602B736B73AB73104630BC70470020AF
:10138000704770B40546002300E001338B4209D258
:101390001C0105EB031628599042F6D1B07B0028BA
:1013A000F3D000E0002070BC704700238B420ED2C7
:1013B00030B41C0100EB03150459944203D00133EF
:1013C0008B42F6D301E00023AB7330BC704770470B
:1013D00000238B421DD210B406E000245473012474
:1013E000947301338B4211D200EB0312547B002C17
:1013F000F7D094680CB1013C94609468002CF0D153
:10140000147B002CE9D054689460E8E75DF8044B45
:101410007047704753B94AB9002908BF00281CBF5C
:101420004FF0FF314FF0FF3000F06EB9ADF1080C16
:101430006DE904CE00F006F8DDF804E0DDE90223F2
:1014400004B070472DE9F047089D04468C46002BF8
:1014500040F083808A42174647D9B2FA82F242B1FD
:10146000C2F1200024FA00F09140974040EA010CBC
:1014700094404FEA1748230CBCFBF8F61FFA87FE8E
:1014800008FB16C143EA014306FB0EF1994209D954
:10149000FB1806F1FF3080F01981994240F2168165
:1014A000023E3B445B1AA4B2B3FBF8F008FB1033D6
:1014B00044EA034400FB0EFEA64509D93C1900F19D
:1014C000FF3380F00581A64540F2028102383C449A
:1014D00040EA0640A4EB0E0400261DB1D4400023D0
:1014E000C5E900433146BDE8F08702B9FFDEB2FA34
:1014F00082F2002A50D1CB1B4FEA174E1FFA87F811
:101500000126B3FBFEFC210C0EFB1C3341EA034118
:1015100008FB0CF38B4207D979180CF1FF3002D28B
:101520008B4200F2E9808446C91AA3B2B1FBFEF0F7
:101530000EFB101143EA014408FB00F8A04507D94F
:101540003C1900F1FF3302D2A04500F2D9801846C1
:10155000A4EB080440EA0C40BFE78B4209D9002DF8
:1015600000F0B1800026C5E9000130463146BDE8F3
:10157000F087B3FA83F6002E4AD18B4202D382421F
:1015800000F2B880841A61EB030101208C46002D23
:10159000A8D0C5E9004CA5E7C2F1200320FA03F664
:1015A000974001FA02F04FEA174ED9403043030C3E
:1015B000B1FBFEF61FFA87F80EFB161143EA014352
:1015C00006FB08F1994204FA02F409D9FB1806F166
:1015D000FF3C80F08D80994240F28A80023E3B447D
:1015E0005B1A81B2B3FBFEF00EFB103341EA0341FC
:1015F00000FB08F38B4207D9791800F1FF3C73D246
:101600008B4271D902383944CB1A40EA064678E752
:10161000C6F1200C03FA06F422FA0CF31C4320FA5C
:101620000CF701FA06F34FEA144E21FA0CF11F43AE
:101630003B0CB1FBFEF91FFA84F80EFB191143EACB
:10164000014109FB08FA8A4502FA06F200FA06F39C
:1016500008D9611809F1FF3048D28A4546D9A9F165
:1016600002092144A1EB0A01BFB2B1FBFEF00EFB5F
:10167000101147EA014700FB08F8B84507D9E719F8
:1016800000F1FF312ED2B8452CD90238274440EA68
:101690000940A7EB0807A0FB02894F45C64649460B
:1016A0001AD317D05DB1B3EB0E0267EB010707FA4F
:1016B0000CFCF2404CEA0202F740C5E90027002684
:1016C0003146BDE8F0872E4628460BE70646E9E698
:1016D0001846FDE64345E5D2B8EB020E69EB04017E
:1016E0000138DFE70846D2E760468DE78146B9E773
:1016F000664675E730464AE7ACF1020C394413E719
:1017000002383C4424E700BF704700BF70B50D4D60
:101710000D4C641BA4100026A64209D10B4D0C4CA5
:10172000FFF769FD641BA4100026A64205D170BD19
:1017300055F8043B98470136EEE755F8043B9847C7
:101740000136F2E7D818001AD818001AD818001A6B
:10175000D818001A02440346934200D1704703F898
:10176000011BF9E7010F01010200440002014400DE
:1017700002024400020A4000020B4000020C40003A
:10178000010050000101500001025000010650000C
:1017900006015000060450000605500006075400DC
:1017A0000608540006095000060A5000060B5000B7
:1017B000060C50000F04F0000103D5000104D50011
:1017C00007011600070256000203520002045200ED
:1017D00009055200090657000602570000000000E4
:1017E0000004000800090109050005010502000EBA
:1017F000010B010C030003030304050F051003058F
:10180000030603070208FFFF001BB700030F0F0FBB
:10181000FF00FFFF000005000A002000240009006F
:101820004000400005006000A6000400C000C300A6
:101830000200E000E00001000001000103002001BF
:1018400020010600400140010C0042014201190044
:10185000620162011300820182011200A201A20151
:101860001100C201C2011000E201E2010F000202F8
:1018700002020E00220222020D00230223021C009B
:10188000C201A2018201620181008200A100A200C6
:1018900000010100090901000A0901000107010115
:1018A00002090100060901000C0901010D090100EE
:1018B0000E0901000F0901001009010011090100C2
:1018C000120901001309010014110100191101008E
:0818D0001A1101001B110100B7
:0818D8006CFBFF7F0100000022
:1018E00000100A40220000008D0E001A00000000C7
:1018F00000000000000000000000000000000E409A
:10190000010000008D0E001A000000000000000021
:081910000000000000000000CF
:040000051A00116D5F
:00000001FF
