:020000041A00E0
:1000000000800010C504001A2501001A2701001AFB
:100010002901001A2B01001A2D01001A6E75FF53D9
:100020000000000000000000000000002F01001A86
:100030003101001A000000003301001A8518001A6F
:100040006701001A6701001A6701001A000000002A
:100050006701001A6701001A6701001A6701001A98
:10006000611B001A6701001A6701001A6701001A74
:100070006117001A6701001A6701001AA117001A18
:100080006701001A6701001A6701001A6701001A68
:100090006701001A6701001A6701001A6701001A58
:1000A0006901001A6701001A6701001A551B001A3E
:1000B0006701001A6701001A6701001A6701001A38
:1000C000A835001A00000010EC000000A835001A46
:1000D0000000081000000000A835001A00000020F1
:1000E00000000000A835001A008000200000000079
:1000F000A835001A00C0002000000000F000001029
:10010000D4000000000008100000000000000020E3
:1001100000000000008000200000000000C000205F
:1001200000000000FEE7FEE7FEE7FEE7FEE7FEE771
:10013000FEE7FEE7FEE7002393420AD210B450F830
:10014000044B41F8044B04339342F8D35DF8044B5D
:100150007047704700238B4204D2002240F8042BE2
:100160000433F8E77047FEE708B5002001F0A0FB74
:1001700008BDFFFFFFFFFFFFFFFFFFFFFFFFFFFFC8
:10018000FFFFFFFFFFFFFFFFFFFFFFFFFFFFFFFF7F
:10019000FFFFFFFFFFFFFFFFFFFFFFFFFFFFFFFF6F
:1001A000FFFFFFFFFFFFFFFFFFFFFFFFFFFFFFFF5F
:1001B000FFFFFFFFFFFFFFFFFFFFFFFFFFFFFFFF4F
:1001C000FFFFFFFFFFFFFFFFFFFFFFFFFFFFFFFF3F
:1001D000FFFFFFFFFFFFFFFFFFFFFFFFFFFFFFFF2F
:1001E000FFFFFFFFFFFFFFFFFFFFFFFFFFFFFFFF1F
:1001F000FFFFFFFFFFFFFFFFFFFFFFFFFFFFFFFF0F
:10020000FFFFFFFFFFFFFFFFFFFFFFFFFFFFFFFFFE
:10021000FFFFFFFFFFFFFFFFFFFFFFFFFFFFFFFFEE
:10022000FFFFFFFFFFFFFFFFFFFFFFFFFFFFFFFFDE
:10023000FFFFFFFFFFFFFFFFFFFFFFFFFFFFFFFFCE
:10024000FFFFFFFFFFFFFFFFFFFFFFFFFFFFFFFFBE
:10025000FFFFFFFFFFFFFFFFFFFFFFFFFFFFFFFFAE
:10026000FFFFFFFFFFFFFFFFFFFFFFFFFFFFFFFF9E
:10027000FFFFFFFFFFFFFFFFFFFFFFFFFFFFFFFF8E
:10028000FFFFFFFFFFFFFFFFFFFFFFFFFFFFFFFF7E
:10029000FFFFFFFFFFFFFFFFFFFFFFFFFFFFFFFF6E
:1002A000FFFFFFFFFFFFFFFFFFFFFFFFFFFFFFFF5E
:1002B000FFFFFFFFFFFFFFFFFFFFFFFFFFFFFFFF4E
:1002C000FFFFFFFFFFFFFFFFFFFFFFFFFFFFFFFF3E
:1002D000FFFFFFFFFFFFFFFFFFFFFFFFFFFFFFFF2E
:1002E000FFFFFFFFFFFFFFFFFFFFFFFFFFFFFFFF1E
:1002F000FFFFFFFFFFFFFFFFFFFFFFFFFFFFFFFF0E
:1003000038B5032001F0DEFB044601464A4802F0FE
:10031000F9FC413C192C20D8DFE804F00D33591FBB
:100320001F1F1F1F1F1F1F1F7F1F1F1F1F1F1F1F7D
:100330001F1F1F20466C002001F0CAFD441CE4B2C0
:10034000002001F0CFFD0546002001F0D5FD43B2AD
:100350006AB261B2002001F0A9FD38BD002001F0B1
:10036000B7FD441EE4B2002001F0BCFD05460020AC
:1003700001F0C2FD43B26AB261B2002001F096FD05
:10038000EBE7002001F0A4FD0546002001F0AAFDE6
:10039000441CE4B2002001F0AFFD43B262B269B286
:1003A000002001F083FDD8E7002001F091FD054613
:1003B000002001F097FD441EE4B2002001F09CFDF6
:1003C00043B262B269B2002001F070FDC5E70020BF
:1003D00001F07EFD0446002001F084FD054600206A
:1003E00001F08AFD431C5BB26AB261B2002001F0E9
:1003F0005DFDB2E7002001F06BFD0446002001F036
:1004000071FD0546002001F077FD431E5BB26AB224
:1004100061B2002001F04AFD9FE7002001F062FD7B
:100420000446002001F068FD431E5BB262B20C215D
:10043000002001F03BFD90E7A831001A08B50948FB
:1004400002F0E6FC084802F0E3FC084802F0E0FC99
:10045000074802F0DDFC074802F0DAFC064802F02B
:10046000D7FC08BDB831001ACC31001AE031001AAF
:10047000F431001A0832001A1C32001A08B501F0D3
:100480007DFB4FF4E131032001F026FB2A232922D2
:100490002821002001F0E4FC0023084A194603202B
:1004A00001F0B2FA0121032001F066FAFFF7C6FF5E
:1004B0004FF4FA70002101F09BFBFEE70103001AE4
:1004C0007047FFFF10B572B6194B1A4A1A60043311
:1004D000194A1A60002305E0184A4FF0FF3142F82C
:1004E00023100133072BF7D962B6154B07E003F150
:1004F0000C049A6859681868FFF71DFE2346114AD4
:100500009342F4D306E01C46596854F8080BFFF7F1
:1005100021FE23460C4A9342F5D300F03BFF02F044
:1005200029F8FFF7CDFFFFF7A9FF30BFFDE700BFB8
:10053000003105400010DF10FFF7DF0180E200E02E
:10054000C000001AFC00001A2401001A704770470E
:10055000092303604FF0FF307047582303604FF0CA
:10056000FF307047022904D9092303604FF0FF30A0
:10057000704701207047582303604FF0FF307047E9
:100580002DE9F041064602291CD817461D460024D5
:10059000AC4211D200F087F9B0F1FF3FF8D004F17E
:1005A000010838550D2803D00A2801D04446EFE74A
:1005B00000F079F9404603E0132333604FF0FF3039
:1005C000BDE8F081132303604FF0FF30F8E7022904
:1005D0000CD870B516461D460024AC4204D2305DDE
:1005E00000F05CF90134F8E7284670BD132303607E
:1005F0004FF0FF307047FFFF054B1B6823B1044BE2
:100600001868014419607047014B024A1A60F6E706
:10061000F0000010C401001000231C2B12D810B4ED
:10062000094A02EB830112F823404A78488802EB1A
:100630004412064941F8220001331C2BF0D95DF821
:10064000044B7047704700BF3432001A0060084006
:1006500010B5174AD2F8203123F4704343F4104305
:10066000C2F82031D2F8243123F4704343F410430C
:10067000C2F8243101220F49062000F0DFFD0024DA
:100680004CB10B4B5A6822F00C025A605A6842F087
:1006900003025A6010BD084800EB840101238A78E8
:1006A000497810F8240000F02FFB0134E8E700BF80
:1006B0000030044000CB280C3032001A08B5FFF798
:1006C000ABFFFFF7C5FF08BD0022052A19D870B49B
:1006D0000C4911F8125001EB42014C780A4B05F518
:1006E000006653F826100120A040014343F826106D
:1006F00003EB4513002119550132052AE8D970BCD6
:1007000070477047B432001A00400F400023032B9B
:1007100016D830B40B4911F8132001EB43014D7882
:10072000094C02F5006254F822100120A84021EA89
:10073000000144F822100133032BEBD930BC704781
:10074000704700BFAC32001A00400F400023082B56
:1007500016D830B40B4911F8132001EB43014D7842
:10076000094C02F5006254F822100120A84021EA49
:10077000000144F822100133082BEBD930BC70473C
:10078000704700BFC032001A00400F4010B582B061
:10079000084C6946204600F011FD074A694620468C
:1007A00000F02CFD00226946204600F040FD02B01A
:1007B00010BD00BF00300E40801A060010B50B4C73
:1007C000204600F083FB636823F004036360236822
:1007D00023F0FF0343F0070323600549204600F0A0
:1007E00056FB636843F00203636010BD00500C4089
:1007F000A086010008B5002000F062FC044B40F622
:100800000802C3F8842C0349002000F06DFC08BDE9
:100810000060084040420F0010B5074C204600F031
:1008200087FB4FF4E131204600F0CCFB0323E3606B
:100830000123E36510BD00BF00100C40034B5B6952
:1008400013F0200FFAD0014B1860704700100C40D5
:10085000054B5B6913F0010F03D0034B1868C0B25E
:1008600070474FF0FF30704700100C4008B5FFF79D
:10087000D3FF094800F01FF8FFF768FFFFF786FF76
:10088000FFF79CFFFFF7B6FFFFF71EFFFFF73EFFE6
:1008900000F012F808BD00BF00400F4008B5C0B21C
:1008A000FFF7CCFF08BD08B5FFF7D2FF08BD08B5BC
:1008B000FFF7B2FF08BD704708B5692000F0A2FA43
:1008C000014B186008BD00BFB0010010F0B40B6808
:1008D00013F0800F02D023F040030B600746012580
:1008E0003AE04B6903FB02F3B3FBF5F31CE01C4653
:1008F000B0EB040C27D4674506D98D60771CCF6018
:100900000A618C61CB6167460132B2F5807F1DDCE4
:100910000C6814F0400FE4D0731C02FA03FC4B691E
:1009200003FB0CF3B3FBF5F3DFF838C06345EBD9F9
:10093000DFF834C0634509D814F0800FD7D1741C98
:1009400023FA04F4D4E7CCF1000CD4E70136032EEB
:1009500001DC0122D9E70135042D01DC0026F6E790
:10096000F0BC7047FF5E4C0900D01213F0B599B08F
:1009700005460C465C22002101A801F022FE8023DE
:1009800000936369059323798DF8043069462846FE
:10099000FFF79CFF069BAB4227D0EB1A2ED41E46D6
:1009A000109B23F0400310936369159323798DF80E
:1009B000443010A92846FFF789FF169BAB421FD091
:1009C000EB1A25D41F462B4B9D4223D90E982D1A86
:1009D00033D4AE423BDCBE4231DC6D460FCD0FC49A
:1009E00095E80F0084E80F0006E06D460FCD0FC4B8
:1009F00095E80F0084E80F0019B0F0BD5B42CEE728
:100A000010AD0FCD0FC495E80F0084E80F00F3E799
:100A10005B42D7E74023089363690D9308A92846F2
:100A2000FFF754FF0E9BAB42D0D108AD0FCD0FC4E2
:100A300095E80F0084E80F00DEE76D42C9E710ADCE
:100A40000FCD0FC495E80F0084E80F00D4E7AF4244
:100A500007DB08AD0FCD0FC495E80F0084E80F0049
:100A6000CAE710AD0FCD0FC495E80F0084E80F0062
:100A7000C2E700BF80778E0630B4054600231C20F5
:100A800000E001331C2817D103EB43020B4901EBB3
:100A90004202117981420FD003EB4302074C34F834
:100AA0001220AA42EDD803EB430204EB4202528823
:100AB000AA42E6D30846E5E730BC7047E032001AA8
:100AC00082B04FF47A7301930D4A936923F00201C7
:100AD00092698A4201D00A4A916123F00303094ACC
:100AE0001168094A914201D943F00403044A936111
:100AF000019B5A1E0192002BFAD102B0704700BF31
:100B000000000540D432001AFF2C31011230054B91
:100B100053F8200010F0010F02D1C0F304607047B9
:100B2000112070470000054000F11202034B53F8FA
:100B30002220034B185C00EA920070470000054039
:100B4000D832001A08B510280AD8DFE800F0440BA4
:100B50000D18210924272A2D09093034383C40007A
:100B6000002008BD1E48FCE71E4BD3F82C3103F0D3
:100B70000703042B01D01C48F3E70020F1E7194BD1
:100B8000D3F82C3103F00703042B27D01648E8E7ED
:100B9000164B1868E5E7164B1868E2E7154B18681E
:100BA000DFE7144B5868DCE700F068F8D9E700216C
:100BB00000F098F8D5E7012100F094F8D1E7022180
:100BC00000F090F8CDE7032100F08CF8C9E704218C
:100BD00000F088F8C5E74FF40040C2E70648C0E7D8
:100BE000001BB7000030044040787D01A832001A95
:100BF000D432001AF400001080F0FA0238B505462D
:100C00000C460879FFF79EFF6061194B2B44194A87
:100C1000934221D818B3802323600023A360E360AC
:100C2000B5FBF0F32361144A954203D903FB00F0AE
:100C3000A84207D021462846FFF798FEA3688BB14B
:100C4000013BA360236983B1E2680AB1013AE26023
:100C5000013B2361002038BD4FF0FF30FBE74FF030
:100C6000FF30F8E74FF0FF30F5E74FF0FF30F2E7E5
:100C7000103A6BFF1005940BFF5E4C0970B582B003
:100C8000164D6C6CC4F30360FFF75CFF0646144A14
:100C90000192286C10F001001DD0C4F30742C4F388
:100CA0000131C4F30125C4F380100132013102ABDC
:100CB0001D4415F8043C14F0800F08D138B95800D1
:100CC000B2FBF0F2B6FBF1F000FB02F003E0B6FB82
:100CD000F1F002FB00F002B070BD00BF0000054063
:100CE0000102040838B50C460846FFF70FFF054619
:100CF0002046FFF719FF04462846FFF723FF01347B
:100D0000B0FBF4F038BDFFFF30B400F11604A400CE
:100D100004F1804404F5A02464681B2813D8112929
:100D20001AD00E4D25400AB145F400650BB145F0CF
:100D3000010545EA01611630800000F1804000F5B0
:100D4000A020416008E044F001041630800000F16A
:100D5000804000F5A020446030BC7047FEF7FFE003
:100D60001B280DD800F116039B0003F1804303F507
:100D7000A023586810F0010F04D1C0F3046070473D
:100D8000112070471120704708B5FFF7E9FFFFF702
:100D9000D9FE08BD71B901210AB141F00401022B4D
:100DA0000AD0B0F5A17F0AD3A0F59170064B43F8A5
:100DB000301070470321EFE741F02001F1E72030C8
:100DC000024B43F8301070470020054000100540EA
:100DD000B0F5A17F09D3094AA0F5917052F83030DF
:100DE00043F0010342F830307047054A203052F892
:100DF000303043F0010342F83030704700200540A6
:100E00000010054010B50346B0F5A17F08D3A0F54A
:100E100091720D4951F8324014F0010006D110BD15
:100E200000F12002094951F83240F5E71846FFF772
:100E300023FEFFF7A9FF14F0E00F03D10123B0FB5D
:100E4000F3F0ECE70223FAE700200540001005402C
:100E5000034B984201D083207047A520704700BF04
:100E600000500C40044B984202D040F202207047E0
:100E70004FF4F170704700BF00500C40036823F43A
:100E80007F43090289B2194301600261704770B55E
:100E900006460C46FFF7E6FFFFF7B4FF02224FF0CD
:100EA000FF33002100E02946A3420BD94D1C01FB72
:100EB0000223B0FBF3F39C42F6D2FF2DF3D90232AA
:100EC0000021F1E73046FFF7D9FF70BD10B50446A9
:100ED000FFF7BEFFFFF77CFF2046FFF7C3FFFFF7DA
:100EE00077FF636823F004036360236823F0FF0344
:100EF00043F00703236002492046FFF7C8FF10BDF7
:100F0000A0860100094B98420BD003F5805398420C
:100F100009D0A3F58023984201D00020704701201A
:100F20007047022070470320704700BF00100C403C
:100F300030B583B00446FFF7E5FF01231A46194692
:100F40000E4D35F81000FFF725FF0723A36000239F
:100F5000E3656360E3602362E36463652365084BD4
:100F60009C4206D00323E3601023A362019B03B0DD
:100F700030BD00232361A3690193F3E75433001AC2
:100F80000020084038B505460C46FFF7BBFF0C4B68
:100F900033F81000FFF736FF2101B0FBF1F1CAB2C0
:100FA000EB6843F08003EB602A60C1F307236B60BA
:100FB000EB6823F08003EB60B0FBF1F0000938BD73
:100FC0004C33001A2DE9F04F83B001908846FFF7AB
:100FD00099FF324B33F81000FFF714FF06464FF02D
:100FE000FF3701244FF0000BA246D9462AE04242C7
:100FF0004B1C17E00AB31746AB46A246994601358B
:10100000AC421ED933093007A4FB000104FB0311D5
:10101000621908FB02F2002300F078FF02460B463B
:101020000028E4DB9742EAD3002BE8D0190CE6D184
:10103000022BDFD8002DDDD0E1E71746AB46A246F4
:10104000994601341FB10F2C01D80025D8E7B9F11A
:10105000000F1ED0019A1146D36843F08003D3607D
:101060005FFA89F31360C9F307235360D36823F051
:101070008003D3604FEA0A13DBB20BF00F02134375
:101080008B6233090AFB03F3DA4409FB0AF9B3FB69
:10109000F9F9484603B0BDE8F08F00BF4C33001AA1
:1010A000012909D1C0EBC000044B03EB80000269A9
:1010B000137DDBB2042BFBD0704700BF0000001093
:1010C00070B50446074EC500C0EBC00306EB8303B2
:1010D0009888FFF77DFE2C1B56F824306C229A610D
:1010E00070BD00BF000000102DE9F04104468846A5
:1010F0000B4DC600C0EBC0039F0005EB830398882F
:10110000FFF780FEB0FBF8F1EB594A081A61341B77
:1011100055F824301869091A5961BDE8F08100BFFB
:1011200000000010094B98420BD0A3F58053984261
:1011300009D0A3F57833984201D0842070478520E8
:101140007047A4207047A320704700BF00400C40A8
:1011500008B5FFF7E7FFFFF73BFE08BD4268002335
:10116000436001238360022343608368002BFCD12A
:1011700042607047034B984201D00320704704201F
:10118000704700BF00400E4070B50D4614461E4625
:10119000FFF7F0FFFFF736FE55B104FB06F404EB52
:1011A00040006400B0FBF4F0C0B20138C0B270BDC2
:1011B00004EB840304EB4304F1E7FFFF38B5054675
:1011C0000C46FFF7D7FF01231A461946FFF7E2FD49
:1011D0000021E960084A2260217161710B232846D1
:1011E000FFF7D2FF000240F4001023795B0403F400
:1011F000602303432B6038BD801A060070B5054696
:101200000E46046824F46F2424F470640A600B7999
:10121000C3F10B03DBB24979FFF7B6FF44EA0024C0
:1012200033795B0403F4602323432B6070BD08B55E
:101230000A710A68FFF7E2FF08BDFFFF70B58AB0C8
:1012400005460E4614464CF250330993062818D032
:101250000023012229460420FFF756FD4A4A536C19
:1012600043F0010353648DF8085001A93046FFF79D
:10127000C5FC464B9E4216D9019B13F0400F03D08C
:10128000FEE7FFF71DFCE3E713F0800F05D023F026
:10129000800301930025012607E0049B013304939A
:1012A0000125002601E000252E469DF80820019B1F
:1012B00043EA0263059A43EA0243039A43EA02338C
:1012C000049A43EA022343F400632F4A53642E4BEB
:1012D0001B6C13F0010FFAD0002301220921042016
:1012E000FFF712FD06B34CF250330993099B5A1EC7
:1012F0000992002BFAD1019B43F0800301939DF8E2
:10130000082043EA0263059A43EA0243039A43EA48
:101310000233049A43EA022343F400631A4A5364F3
:10132000002C2ED10AB070BD002DF9D04CF25033F4
:101330000993099B5A1E0992002BFAD1049B5A1E4D
:1013400004929DF80810019B43EA0163059943EA62
:101350000143039943EA013343EA022343F4006360
:10136000094A5364DCE70A4800EB8401CB788A78A9
:10137000497810F82400FFF7C7FC0134112CF2D98A
:10138000D0E70024FAE700BF0000054080778E0612
:101390005C33001A08B50B4A0B4B9A6003F50C73CB
:1013A0001B6903F47F63202B04D0FFF787F9FFF755
:1013B0005DFA08BD044AD2F8883043F47003C2F8DD
:1013C0008830F2E70000001A00ED00E0044B1860DE
:1013D000044A136843F0010313600120704700BF03
:1013E00038000010001000E030B40B4D00EB80001E
:1013F0002C182856087094F90110117094F90220E5
:101400001A7094F90320029B1A7094F90420039B2C
:101410001A7030BC704700BFA433001A10F1020FDD
:1014200000F0C68070B584B00C46B0F1FF3F00F00C
:10143000C18000238DF80F308DF80E308DF80D30FF
:101440008DF80C308DF80B300DF10B03019303ABCD
:1014500000930DF10D030DF10E020DF10F01FFF7D9
:10146000C3FF052C00F2A980DFE804F008802644C1
:1014700062035348FFF71FFA01209CE09DF80F100C
:101480009DF80E309DF80D2042F0D00203EB411381
:101490004C4941F823209DF80C309DF90B20012088
:1014A00000FA02F1464C03F5006354F8232022EAC7
:1014B000010244F823207EE09DF80F109DF80E30C5
:1014C0009DF80D2042F0C00203EB41133D4941F865
:1014D00023209DF80C309DF90B20012000FA02F129
:1014E000374C03F5006354F8232022EA010244F844
:1014F000232060E09DF80F109DF80E309DF80D2020
:1015000042F0D80203EB41132E4941F823209DF805
:101510000C309DF90B20012000FA02F1284C03F554
:10152000006354F8232022EA010244F8232042E019
:101530009DF80F109DF80E309DF80D2042F0C80266
:1015400003EB41131F4941F823209DF80C309DF90E
:101550000B20012000FA02F1194C03F5006354F846
:10156000232022EA010244F8232024E09DF80F10F2
:101570009DF80E309DF80D2042F0D00203EB411390
:10158000104941F823209DF80C009DF90B10012211
:101590008A400B4B00F5006553F82560324343F851
:1015A0002520C9B203EB401300225A54204602E022
:1015B00000207047002004B070BD0020FBE700BF92
:1015C00000400F400060084010F1020F2DD010B510
:1015D00084B00C46B0F1FF3F29D000238DF80F30C6
:1015E0008DF80E308DF80D308DF80C308DF80B30F5
:1015F0000DF10B03019303AB00930DF10D030DF1FE
:101600000E020DF10F01FFF7EFFE9DF80C309DF873
:101610000B20211E18BF01215B0103F1402303F5BC
:1016200070239954012004B010BD002070470020A1
:10163000F9E7FEE77047FFFF2DE9F041002976D07A
:10164000054616460F4604463E4B00EB400203EBB0
:10165000820853F82200FFF77BFD98F8043003F06E
:101660001F015B0901228A404033374941F823209A
:1016700004EB4403334A02EB83031B795A095432C7
:10168000314951F8222003F01F03012101FA03F32D
:101690001A42EDD02B4B05EB450203EB820853F8C1
:1016A00022402046FFF75AFD2B01284AD650636995
:1016B00043F001036361A761636943F0020363615F
:1016C000636843F001036360D8F8082053B2002B2D
:1016D00030DB03F1604303F56143C02283F800234C
:1016E00005EB4503174A02EB83039A6853B2002BBC
:1016F00008DB02F01F025B09012101FA02F2144922
:1017000041F8232005EB45050E4B03EB8505AA6840
:1017100053B2002B09DB02F01F025B09012101FA21
:1017200002F260330A4941F82320BDE8F08100202D
:10173000FFF77FFF02F00F02064B1344C0221A7618
:10174000CEE700BF8C34001A003005403C0000108A
:1017500000E100E0FCEC00E0CC2303FB00F070476C
:1017600038B5002401E00134E4B2032C12D865B28C
:10177000094B1A6804F00F0101238B401A42F2D082
:10178000064B53F82430002098470123AB40024A0F
:101790001360E8E738BD00BF004008403C0000107F
:1017A00038B5002401E00134E4B2032C14D865B24A
:1017B0000A4B1A6804F00F0101238B401A42F2D041
:1017C00004F10C03064A52F8233000209847012305
:1017D000AB40024A1360E6E738BD00BF00400C4052
:1017E0003C000010014BD3E90001704700010010DC
:1017F00018B1044B07221A607047024B00221A608E
:10180000704700BF10E000E038B502460B4652EAD0
:10181000030128D010F1FF3443F1FF35002D08BF3C
:10182000322C25D21349C1E9002313490C68A4FBCB
:10183000000104FB03114FF47A72002300F066FBF1
:101840000138B0F1807F09D20C4B58600C4AE0217E
:1018500082F8231000229A6007221A600120FFF705
:10186000C7FF012005E00020FFF7C2FF002000E0D5
:10187000002038BD80000010B001001010E000E032
:1018800000ED00E008B5074A13685168013341F1E3
:10189000000113605160044B1B6813B1034A1068C8
:1018A000984708BD0001001008010010FC0000105E
:1018B00070B5044600EB4002224B53F822506B698E
:1018C000DEB213F0010F0AD028B91F4B1B6813B109
:1018D0001E4A10689847032C14D0052C1AD016F015
:1018E000200F0ED06B6813F0020F0AD02CB9184BE2
:1018F0001B6813B1174A10689847032C12D0052CA7
:1019000018D070BD144B1B68002BE6D0134A10682A
:101910009847E2E7124B1B68002BE0D0114A106891
:101920009847DCE7104B1B68002BE8D00F4A106883
:101930009847E4E70E4B1B68002BE2D00D4A106875
:101940009847DEE7BC34001A0C01001010010010AB
:1019500024010010280100101401001018010010CB
:101960001C010010200100102C010010300100109B
:10197000340100103801001041B300EB40031F4A4E
:1019800002EB830393F90A30002B18DB03F1604369
:1019900003F56143A02283F8002300EB4000174BBE
:1019A00003EB800090F90A30002B25DB03F01F01C8
:1019B0005B0901228A40124941F82320704703F055
:1019C0000F03104A1A44A0231376E6E700EB400009
:1019D0000A4B03EB800090F90A30002B0CDB03F07C
:1019E0001F015B0901228A402033054941F8232069
:1019F000BFF34F8FBFF36F8F704700BFBC34001A27
:101A000000E100E0FCEC00E010B461B101291CD160
:101A1000DAB101282CD9C11EC9B201292DD9052856
:101A200030D0022309E082B1012811D9C11EC9B208
:101A3000012912D9052815D0052300EB4000144ACE
:101A400052F8202051680B4353605DF8044B7047F7
:101A500010490A6010490B60E8E710490A60104914
:101A60000B60E7E70F490A600F4A13600523E4E7BC
:101A70000E490A600E490B60CDE70E490A600E4917
:101A80000B60CCE70D490A600D4A13600223D4E7CE
:101A9000BC34001A0C0100101001001014010010D9
:101AA000180100101C01001020010010240100107A
:101AB000280100102C01001030010010340100102A
:101AC0003801001000EB4000024B53F8203018683A
:101AD000C0B27047BC34001A2DE9F8430446894669
:101AE000194D00EB400305EB830655F8237038468B
:101AF000FFF71EFA49463846FFF744FA0723BB6052
:101B00003B680123FB6530797379B27942F01802A2
:101B10000E4903EB401341F82320F079337A727AAF
:101B200042F0D00203EB401341F82320012C01D0F6
:101B3000BDE8F883064AD36C43F03003D3641A221D
:101B4000C1F80823F4E700BFBC34001A0060084065
:101B50000010084008B50520FFF7AAFE08BDFFFFEA
:101B600008B5044B1B681B68DB68034A106898477C
:101B700008BD00BFB40100103C01001008B5FEF71D
:101B80009BFE1A4B1868FFF721FC01200021FFF78C
:101B90003BFE05210020FFF741FC00212420FFF738
:101BA0003DFC00212520FFF739FC00212620FFF70E
:101BB00035FC00212720FFF731FC01212820FFF709
:101BC0002DFC01212920FFF729FC01212A20FFF704
:101BD00025FC01212B20FFF721FC01212C20FFF700
:101BE0001DFC01212D20FFF719FC08BDB0010010DC
:101BF0002DE9F84381468846FFF7F4FD06460F4677
:101C0000FFF7F0FD841B61EB0705064BD3E90023CA
:101C10004846414600F07AF98D4208BF8442EFD32E
:101C2000BDE8F8838000001000EB800300EB430266
:101C3000234B134493F90330002B0ADB192B0CDDE3
:101C400000EB800300EB43021D4B13441922DA70B2
:101C500003E01B4B13440022DA7000EB800300EB1F
:101C60004302174B134493F90430002B0ADB192B62
:101C70000CDD00EB800300EB4302114B13441922EF
:101C80001A7103E00E4B134400221A7100EB80031B
:101C900000EB43020A4B134493F90530002B0ADB97
:101CA000192B07DD00EB800300EB4300044B1844C5
:101CB0001923437170470248104400234371704751
:101CC0004001001010B5124B1C7804B110BD4FF448
:101CD0007A70FFF741FD01460E4A0320FFF7ACFC86
:101CE00010E00D4804EB840104EB4101431800228D
:101CF00042545A709A70DA701A715A7164229A7248
:101D00000134E4B2082CECD9014B01221A70DDE752
:101D1000A30100101D1D001A4001001038B5002459
:101D20001DE0002140B2FFF74FFC2FE005EB8503DB
:101D300005EB4302484B1344002193F90100FFF7E0
:101D400043FC2FE005EB850305EB4305424B1D44A7
:101D5000002195F90200FFF737FC0134E4B2082CAA
:101D60002DD8254604EB840304EB43033A4AD05CA8
:101D70000028F2D004EB840304EB4302364B1344F7
:101D800093F90320354B1B689A42CAD005EB8503B3
:101D900005EB4302304B134493F904202F4B1B688F
:101DA0009A42C3D005EB850305EB43022A4B13444B
:101DB00093F90520294B1B689A42CED1C2E7274AE6
:101DC000136801331360192B44D038BD012140B290
:101DD000FFF7FAFB21E0204B1344012193F90100A6
:101DE000FFF7F2FB23E01D4B00221A600134E4B23E
:101DF000082CEAD8254604EB840304EB4303164A77
:101E0000D05C0028F2D004EB840304EB4302124BB5
:101E1000134493F90330002BD8DC05EB850305EB65
:101E200043020D4B134493F90430002BD3DC05EB34
:101E3000850305EB4302084B134493F90530002B4F
:101E4000D1DD1546044B1D44012195F90200FFF731
:101E5000BBFBC8E70024CBE740010010A401001041
:101E60002DE9F04104460E4690461F46FFF72AFF33
:101E70000D4B04EB840004EB40041D191E5585F83E
:101E80000180AF70012170B2FFF7C8FA012195F906
:101E90000100FFF7C3FA012195F90200FFF7BEFA2E
:101EA0000120BDE8F08100BF4001001038B500EB13
:101EB000800500EB4504054D2C44E17022716371EF
:101EC00000236372FFF7B0FE38BD00BF4001001071
:101ED00000EB800300EB4300014B1844C0787047CF
:101EE0004001001000EB800300EB4300014B18445D
:101EF000007970474001001000EB800300EB4300C5
:101F0000014B1844407970474001001053B94AB959
:101F1000002908BF00281CBF4FF0FF314FF0FF30F1
:101F200000F06EB9ADF1080C6DE904CE00F006F8D2
:101F3000DDF804E0DDE9022304B070472DE9F04745
:101F4000089D04468C46002B40F083808A42174649
:101F500047D9B2FA82F242B1C2F1200024FA00F06D
:101F60009140974040EA010C94404FEA1748230CF7
:101F7000BCFBF8F61FFA87FE08FB16C143EA0143D3
:101F800006FB0EF1994209D9FB1806F1FF3080F0EB
:101F90001981994240F21681023E3B445B1AA4B279
:101FA000B3FBF8F008FB103344EA034400FB0EFED9
:101FB000A64509D93C1900F1FF3380F00581A645FB
:101FC00040F2028102383C4440EA0640A4EB0E0491
:101FD00000261DB1D4400023C5E900433146BDE8C9
:101FE000F08702B9FFDEB2FA82F2002A50D1CB1B91
:101FF0004FEA174E1FFA87F80126B3FBFEFC210CAF
:102000000EFB1C3341EA034108FB0CF38B4207D95A
:1020100079180CF1FF3002D28B4200F2E98084463D
:10202000C91AA3B2B1FBFEF00EFB101143EA014442
:1020300008FB00F8A04507D93C1900F1FF3302D294
:10204000A04500F2D9801846A4EB080440EA0C40F1
:10205000BFE78B4209D9002D00F0B1800026C5E909
:10206000000130463146BDE8F087B3FA83F6002E12
:102070004AD18B4202D3824200F2B880841A61EBCB
:10208000030101208C46002DA8D0C5E9004CA5E72E
:10209000C2F1200320FA03F6974001FA02F04FEA5A
:1020A000174ED9403043030CB1FBFEF61FFA87F8F8
:1020B0000EFB161143EA014306FB08F1994204FAAC
:1020C00002F409D9FB1806F1FF3C80F08D8099429B
:1020D00040F28A80023E3B445B1A81B2B3FBFEF0C1
:1020E0000EFB103341EA034100FB08F38B4207D992
:1020F000791800F1FF3C73D28B4271D90238394410
:10210000CB1A40EA064678E7C6F1200C03FA06F43B
:1021100022FA0CF31C4320FA0CF701FA06F34FEAFB
:10212000144E21FA0CF11F433B0CB1FBFEF91FFAD0
:1021300084F80EFB191143EA014109FB08FA8A45AC
:1021400002FA06F200FA06F308D9611809F1FF3025
:1021500048D28A4546D9A9F102092144A1EB0A01D6
:10216000BFB2B1FBFEF00EFB101147EA014700FBC6
:1021700008F8B84507D9E71900F1FF312ED2B84564
:102180002CD90238274440EA0940A7EB0807A0FBF6
:1021900002894F45C64649461AD317D05DB1B3EB05
:1021A0000E0267EB010707FA0CFCF2404CEA020250
:1021B000F740C5E9002700263146BDE8F0872E46E6
:1021C00028460BE70646E9E61846FDE64345E5D214
:1021D000B8EB020E69EB04010138DFE70846D2E7ED
:1021E00060468DE78146B9E7664675E730464AE7BF
:1021F000ACF1020C394413E702383C4424E700BF39
:10220000704700BF8A892DE9F041054610070C464A
:1022100058D44B68002B05DC0B6C002B02DC002033
:10222000BDE8F081E66A002EF9D0002312F4805256
:102230002F682B6032D0606DA3895A0705D563687B
:10224000C01A636B0BB1236CC01A00230246E66A06
:10225000216A2846B047431CA38906D129681D2955
:102260002CD82A4ACA40D60728D500226260D90451
:102270002269226004D5421C01D12B6803B9606534
:10228000616B2F600029CAD004F14403994202D047
:10229000284600F09FF900206063C1E7216A01230E
:1022A0002846B047411CC7D12B68002BC4D01D2B3A
:1022B00001D0162B01D12F60B1E7A38943F0400371
:1022C000A381ADE70F69002FA9D093070E6808BF5F
:1022D0004B690F6018BF0023A6EB07088B60B8F1AD
:1022E000000F9CDD216AA66A43463A462846B0475D
:1022F000002806DCA38943F04003A3814FF0FF30A0
:102300008EE70744A8EB0008E9E700BF0100402082
:1023100038B50B6905460C4613B90025284638BD6B
:1023200018B183690BB900F087F8144B9C421BD19C
:102330006C68B4F90C30002BEFD0626ED00704D477
:10234000990502D4A06D00F03AF928462146FFF71E
:1023500059FF636EDA070546E0D4A3899B05DDD4F7
:10236000A06D00F02DF9D9E7054B9C4201D1AC6876
:10237000DFE7044B9C4208BFEC68DAE72435001A1B
:102380004435001A0435001A002310B50446C0E98C
:102390000033C0E90433836081814366C281836175
:1023A000194608225C3000F00CF9054B6362054BBE
:1023B000A362054BE362054B2462236310BD00BF9B
:1023C000212E001A432E001A7B2E001A9F2E001A6F
:1023D000014900F0AFB800BF1123001A70B54A1EC2
:1023E000682555430E4605F1740100F043F9044693
:1023F00040B10021C0E900160C30A06005F1680270
:1024000000F0DFF8204670BD014800F0D8B800BFEA
:10241000C0010010014800F0D3B800BFC001001097
:10242000014800F0CCB800BFBB010010014800F02B
:10243000C7B800BFBB01001010B50446FFF7F0FF9E
:10244000A3691BB1BDE81040FFF7F0BFC4E9123328
:102450002365134B134A1B68A262A34204BF0123E6
:10246000A361204600F020F86060204600F01CF8D0
:10247000A060204600F018F80022E06004216068A7
:10248000FFF782FFA06801220921FFF77DFFE068C6
:1024900002221221FFF778FF0123A361D2E700BFD8
:1024A0006435001AD123001AF8B50746FFF7ACFFD0
:1024B0001E4B1E68B36913B93046FFF7BDFF48369F
:1024C000D6E90134013B03D533680BB33668F7E72F
:1024D000B4F90C50D5B9164BE36004F158006566A9
:1024E00000F06CF8FFF796FFC4E90155C4E9045504
:1024F0002560A5610822294604F15C0000F061F81E
:10250000C4E90D55C4E912552046F8BD6834D9E731
:1025100004213846FFF762FF044630600028D5D119
:10252000FFF778FF0C233B60EEE700BF6435001A2D
:102530000100FFFF2DE9F8430646884600F14804F4
:102540000027D4E90195B9F1010905D52468002CCB
:10255000F7D13846BDE8F883AB89012B07D9B5F927
:102560000E30013303D029463046C0470743683553
:10257000E9E7FFFF70B50D4D0D4C641BA41000265C
:10258000A64209D10B4D0C4CFDF7E1FF641BA410D2
:102590000026A64205D170BD55F8043B9847013688
:1025A000EEE755F8043B98470136F2E79C35001AF0
:1025B0009C35001A9C35001AA035001A70477047E8
:1025C000704702440346934200D1704703F8011B51
:1025D000F9E7FFFF37B5002948D051F8043C0190D6
:1025E000002BA1F10404B8BFE41800F0D1FD204A8B
:1025F00001981368154633B96360146003B0BDE8F1
:10260000304000F0CBBDA3420BD921686218934241
:1026100004BF1A685B68636004BF521822602C60B4
:10262000ECE71A465B680BB1A342FAD9116855185A
:10263000A5420BD1246821445418A3421160DDD176
:102640001C685B68536021441160D7E702D90C23F2
:102650000360D3E7256861198B4204BF19685B6882
:10266000636004BF491921605460C7E703B030BDFF
:10267000A8010010F8B5CD1C25F0030508350C2D78
:1026800038BF0C25002D064601DBA94203D90C23D7
:1026900033600020F8BD00F07BFD21490A68144634
:1026A0009CB9204F3B6823B921463046FDF7A4FF73
:1026B000386029463046FDF79FFF431C23D10C2389
:1026C0003360304600F06AFDE3E723685B1B17D4F4
:1026D0000B2B03D923601C44256004E06368A242ED
:1026E0000CBF0B605360304600F058FD04F10B0046
:1026F000231D20F00700C21ACCD01B1AA350C9E733
:1027000022466468CCE7C41C24F00304A042E3D052
:10271000211A3046FDF770FF0130DDD1CFE700BF51
:10272000A8010010AC0100109368013B002B10B40D
:10273000936008DA9469A34201DB0A2903D15DF8AA
:10274000044B00F0B1BB1368581C106019700846A8
:102750005DF8044B7047F8B506460F461446D51889
:10276000AC4201D1002007E014F8011B3A46304684
:10277000FFF7DAFF431CF3D1F8BDFFFF2DE9F04F5F
:102780000D469DB014469846064618B183690BB9AC
:10279000FFF752FE894B9D421BD175686B6ED907BE
:1027A00005D4AB899A0502D4A86DFFF708FFAB8961
:1027B0001B0701D52B69EBB92946304600F0C6FB53
:1027C000C0B16B6EDC070ED54FF0FF301DB0BDE819
:1027D000F08F7B4B9D4201D1B568DFE7794B9D427D
:1027E00008BFF568DAE7AB899805EDD4A86DFFF767
:1027F000E7FEE9E70023099320238DF82930CDF87F
:102800000C803023DFF8C0818DF82A304FF00109A9
:1028100023469A4613F8012B0AB1252AF9D1BAEBBF
:10282000040B0BD05B46224629463046FFF793FF48
:10283000013000F0AA80099A5A4409929AF80030AF
:10284000002B00F0A28000234FF0FF32CDE90523DA
:102850000AF1010A049307938DF853301A935446F2
:10286000052214F8011B584800F042FC049AD8B91C
:10287000D10644BF20238DF85330130744BF2B23C8
:102880008DF853309AF800302A2B15D0079A544609
:1028900000204FF00A0C214611F8013B303B092B78
:1028A0004ED9B0B1079214E0A0EB080309FA03F384
:1028B00013430493A246D2E7039B191D1B6803919F
:1028C000002BBBBF5B4242F0020207930793B8BFE5
:1028D000049223782E2B0CD163782A2B35D1039BBD
:1028E0001A1D1B680392002BB8BF4FF0FF33023450
:1028F0000593DFF8E4A021780322504600F0F8FBAE
:1029000040B14023A0EB0A0003FA00F0049B03430C
:102910000134049314F8011B2C488DF8281006226A
:1029200000F0E6FB00283FD0294B1BBB039B07337D
:1029300023F0070308330393099B3B44099367E79C
:102940000CFB02320C460120A5E70023013405935D
:1029500019464FF00A0C204610F8012B303A092A8C
:1029600003D9002BC5D00591C3E70CFB0121044618
:102970000123F0E703AB00932A46164B04A9304627
:10298000AFF300800746781CD6D16B6ED90705D40B
:10299000AB899A0502D4A86DFFF712FEAB895B06DE
:1029A0003FF512AF099811E703AB00932A46094B94
:1029B00004A9304600F080F8E4E700BF2435001A8F
:1029C0004435001A0435001A6835001A7235001AA9
:1029D000000000005727001A6E35001A2DE9F04755
:1029E000164699468A680B69DDF820809342B8BF85
:1029F0001346336091F8432007460C460AB1013371
:102A000033602368990642BF336802333360256818
:102A100015F0060506D104F1190AE36832689B1A1D
:102A2000AB4226DC94F84320131E226818BF012312
:102A300092062BD404F1430249463846C047013080
:102A40001ED02368E568326803F00603042B08BF34
:102A5000AD1AA36822690CBF25EAE57500259342EB
:102A6000C4BF9B1AED1800261A34B5421AD10020B3
:102A700008E00123524649463846C047013003D199
:102A80004FF0FF30BDE8F0870135C6E7E1185A1C6A
:102A9000302081F84300224494F8451082F8431016
:102AA0000233C7E70123224649463846C047013072
:102AB000E6D00136D9E7FFFF2DE9FF470C469146E6
:102AC000277E0C99782F80469A4604F1430207D856
:102AD000622F0AD8002F00F0D880582F00F0A38072
:102AE00004F1420684F842703AE0A7F16303152B23
:102AF000F6D801A050F823F0512B001A652B001ACC
:102B0000E12A001AE12A001AE12A001AE12A001A31
:102B1000652B001AE12A001AE12A001AE12A001A9C
:102B2000E12A001A712C001A952B001A532C001A56
:102B3000E12A001AE12A001A932C001AE12A001A4D
:102B4000952B001AE12A001AE12A001A5B2C001AC0
:102B50000B681A1D1B680A6004F1420684F84230B3
:102B60000123A3E0256808682E0600F104030AD5B6
:102B700005680B60002D03DA2D236D4284F8433085
:102B80005E480A2319E015F0400F05680B6018BF76
:102B90002DB2EFE70B682568181D0860280601D5DF
:102BA0001D6802E06906FBD51D8854486F2F0CBFD5
:102BB00008230A23002184F843106668A660002ECB
:102BC000A2BF216821F0040121600DB9002E4DD073
:102BD0001646B5FBF3F103FB1157C75D06F8017DFF
:102BE0002F46BB420D46F4D9082B0BD12368DF07D3
:102BF00008D5236961689942DEBF302306F8013C9D
:102C000006F1FF36921B2261CDF800A04B4603AAC5
:102C100021464046FFF7E2FE01304CD14FF0FF3035
:102C200004B0BDE8F087354884F8457023680E6825
:102C30001F0656F8045B0E6014D5D90744BF43F055
:102C4000200323601DB9236823F020032360102391
:102C5000B0E7236843F0200323607823284884F8F2
:102C60004530E3E75E0648BFADB2E6E71646BBE790
:102C70000B68266860691D1D0D6035061B6801D54F
:102C8000186002E07106FBD5188000232361164608
:102C9000BAE70B681A1D0A601E6862680021304698
:102CA00000F026FA08B1801B60606368236100238E
:102CB00084F84330A8E72369324649464046D04766
:102CC0000130ABD023689B0713D4E068039B984284
:102CD000B8BF1846A4E70123324649464046D047CC
:102CE00001309BD00135E36803995B1AAB42F2DCFB
:102CF000EBE7002504F11906F5E700BF7935001A66
:102D00008A35001A0FB40A4B13B51C6824B1A369A5
:102D100013B92046FFF790FB05AB049AA168019315
:102D20002046FFF72BFD02B0BDE8104004B070470D
:102D30008800001070B50E46054618B183690BB9BE
:102D4000FFF77AFBAB69AC6813B92846FFF774FB51
:102D50002C4B9C4220D16C68636EDB0705D4A389A1
:102D6000980502D4A06DFFF72AFCA38919071DD589
:102D70002369DBB1013EA36816F8011F013BA36084
:102D800039BB002B38DA22460A21284600F08CF89D
:102D9000013011D00A2511E01B4B9C4201D1AC68D7
:102DA000DAE71A4B9C4208BFEC68D5E72146284673
:102DB00000F0CCF80028DDD04FF0FF35636EDA0765
:102DC00005D4A3899B0502D4A06DFFF7F9FB284623
:102DD00070BD002B04DAA2699A4206DC0A2904D0ED
:102DE00023685A1C22601970C5E72246284600F065
:102DF0005BF80130BFD1DFE723680A255A1C226047
:102E00001D70DBE72435001A4435001A0435001A1A
:102E1000024B01461868FFF78DBF00BF8800001005
:102E200010B50C46B1F90E10FDF7AAFB0028ABBF98
:102E3000636DA3891B1823F48053ACBF6365A38122
:102E400010BD2DE9F0411F468B89DB0505460C4678
:102E5000164605D5B1F90E1002230022FDF78BFBB3
:102E6000A389B4F90E1023F48053A38132463B4664
:102E70002846BDE8F041FDF7AABB10B50C46B1F9F4
:102E80000E10FDF778FB431CA38915BF606523F482
:102E9000805343F48053A38118BFA38110BDB1F9BF
:102EA0000E10FDF755BBFFFFF8B50E46144605465C
:102EB00018B183690BB9FFF7BFFA214B9C422BD1A4
:102EC0006C68A369A360A3891A072FD523696BB324
:102ED00023692068C01A6369F6B28342374604DC6E
:102EE00021462846FFF714FA30BBA368013BA360D4
:102EF00023685A1C22601E7063690130834204D02B
:102F0000A389DB0706D50A2E04D121462846FFF700
:102F1000FFF988B93846F8BD0A4B9C4201D1AC682C
:102F2000CFE7094B9C4208BFEC68CAE72146284618
:102F300000F00CF80028CBD04FF0FF37EAE700BFD5
:102F40002435001A4435001A0435001A324B70B586
:102F50001D6806460C4625B1AB6913B92846FFF734
:102F60006BFA2E4B9C420FD16C68A389B4F90C20EC
:102F700019072CD4DD0611D40923336042F0400335
:102F8000A3814FF0FF303EE0254B9C4201D1AC685D
:102F9000EBE7244B9C4208BFEC68E6E7580712D5E4
:102FA000616B41B104F14403994202D03046FFF70E
:102FB00011FB00236363A38923F02403A38100236F
:102FC000636023692360A38943F00803A381236915
:102FD0004BB9A38903F42073B3F5007F03D02146D6
:102FE000304600F045F8A089B4F90C2010F0010338
:102FF0000AD00023A36063695B42A361236943B9DC
:1030000010F08000BAD170BD810758BF6369A3601A
:10301000F4E70020F7E700BF880000102435001A0D
:103020004435001A0435001A70B50E46B1F90E1079
:10303000002996B014461D4607DA00232B60B38999
:103040001A0610D44FF480630EE06A46FDF785FA45
:103050000028F2DB019A02F47042A2F500535A42B2
:103060005A412A60EEE740230020236016B070BD6D
:103070008B8973B59D0706460C4607D504F14703B7
:10308000236023610123636102B070BD01AB6A4616
:10309000FFF7CAFF009905463046FFF7EBFA48B93B
:1030A000B4F90C309A05EFD423F0030343F0020384
:1030B000A381E3E70D4BB362A389206043F0800353
:1030C000A381009B6361019B20615BB1B4F90E1089
:1030D0003046FDF747FA28B1A38923F0030343F0F4
:1030E0000103A381A0890543A581CDE7D123001A5F
:1030F00001F0FF01102A2BDB10F0070F08D010F8A9
:10310000013B013A8B422DD010F0070F42B3F6D1AC
:10311000F0B441EA012141EA014122F007047FF0C5
:1031200000070023F0E80256083C85EA010586EA1C
:10313000010685FA47F5A3FA87F586FA47F6A5FA58
:1031400087F68EB9EED1F0BC01F0FF0102F0070264
:1031500032B110F8013B013A83EA010313B1F8D10F
:103160000020704701387047002D06BF35460338F0
:10317000073815F0010F07D1013015F4807F02BF29
:10318000013015F4C03F0130F0BC0138704700BF7A
:103190000148FFF714BA00BFBC0100100148FFF757
:1031A0000FBA00BFBC010010536520696E677265DD
:1031B000736F3A20256300FF2B206272696C6C6F7D
:1031C000204C6564313A20410D0000002B206272D2
:1031D000696C6C6F204C6564323A20420D0000002F
:1031E0002B206272696C6C6F204C6564333A20430B
:1031F0000D0000002D206272696C6C6F204C6564BC
:10320000313A20580D0000002D206272696C6C6FFD
:10321000204C6564323A20590D0000002D20627266
:10322000696C6C6F204C6564333A205A0D00FFFFC7
:10323000010F0101020044000201440002024400A7
:10324000020A4000020B4000020C40000100500046
:10325000010150000102500001065000060150001B
:1032600006045000060550000607540006085400E6
:1032700006095000060A5000060B5000060C5000CC
:103280000F04F0000103D5000104D500070116006A
:1032900007025600020352000204520009055200C0
:1032A000090657000602570000000000000400084D
:1032B00000090109050005010502000E010B010CC2
:1032C000030003030304050F0510030503060307AA
:1032D0000208FFFF001BB700030F0F0FFF00FFFFE7
:1032E000000005000A002000240009004000400002
:1032F00005006000A6000400C000C3000200E0005A
:10330000E00001000001000103002001200106008F
:10331000400140010C0042014201190062016201BA
:103320001300820182011200A201A2011100C20158
:10333000C2011000E201E2010F00020202020E00CF
:10334000220222020D00230223021C00C201A2015C
:103350008201620181008200A100A200000101003F
:10336000090901000A090100010701010209010020
:10337000060901000C0901010D0901000E090100F7
:103380000F090100100901001109010012090100D3
:103390001309010014110100191101001A11010093
:1033A0001B1101000401000201070500030D0105C6
:1033B00000010804020002020403000203040000EA
:1033C0000200070400030C030204050903010405BD
:1033D0000802030405030204040504060C000208A5
:1033E000060B0003070609000305060704050F0680
:1033F000040003030404000204040500020504069B
:10340000000206040804050C040A04050E0103006A
:10341000000A011400000F011200000D011100004C
:103420000C0110000003070700030F00010000015A
:103430000000000000060A00030606080405100646
:10344000050003040601000300040904050D01043E
:1034500000000B010F000002010000000401010048
:10346000000801020000090106000109020004052C
:103470000002010405010202040502020A00000E16
:10348000020B00010B020C00010CFFFF0040084082
:10349000200000000C000000005008402100000047
:1034A0000D00000000300C40220000000E00000063
:1034B00000400C40230000000F00000000100840F6
:1034C0000604020605021800001008400905070955
:1034D0000607180000200840000000000000190046
:1034E00000100C400701060702061A0000100C40ED
:1034F000010F010110011A0000200C40020302021A
:1035000004021B000000000000000000000000009A
:1035100000000000000000000000000000000000AB
:10352000000000000000000000000000000000009B
:10353000000000000000000000000000000000008B
:10354000000000000000000000000000000000007B
:10355000000000000000000000000000000000006B
:10356000000000008C000010232D302B2000686C20
:103570004C00656667454647003031323334353696
:1035800037383941424344454600303132333435CF
:0C3590003637383961626364656600FFFD
:04359C00AF08001A5A
:0835A0009CE9FF7F010000001F
:1035A80000100A4022000000A110001A00000000CC
:1035B80000000000000000000000000000000E40B5
:1035C80001000000A110001A000000000000000027
:1035D800000000000000000000CB280C3516001A7F
:1035E8003316001A3316001A3316001A3516001A45
:1035F8003316001A3316001A3316001A3516001A35
:103608003316001A3316001A3316001A3516001A24
:103618003316001A3316001A3316001AFFFFFFFF7D
:1036280001000000000000008C00001000000000F5
:103638002435001A4435001A0435001A0000000029
:103648000000000000000000000000000000000072
:103658000000000000000000000000000000000062
:103668000000000000000000000000000000000052
:103678000000000000000000000000000000000042
:0C36880000000000000000000000000036
:040000051A0004C514
:00000001FF
